{
  "_format": "hh-sol-artifact-1",
  "contractName": "Asset",
  "sourceName": "contracts/Asset.sol",
  "abi": [
    {
      "inputs": [
        {
          "internalType": "address",
          "name": "_ethereumDIDRegistry",
          "type": "address"
        },
        {
          "internalType": "bytes32[]",
          "name": "keys",
          "type": "bytes32[]"
        },
        {
          "internalType": "bytes32[]",
          "name": "values",
          "type": "bytes32[]"
        }
      ],
      "stateMutability": "nonpayable",
      "type": "constructor"
    },
    {
      "anonymous": false,
      "inputs": [
        {
          "indexed": true,
          "internalType": "address",
          "name": "previousOwner",
          "type": "address"
        },
        {
          "indexed": true,
          "internalType": "address",
          "name": "newOwner",
          "type": "address"
        }
      ],
      "name": "OwnershipTransferred",
      "type": "event"
    },
    {
      "anonymous": false,
      "inputs": [
        {
          "indexed": true,
          "internalType": "bytes32",
          "name": "role",
          "type": "bytes32"
        },
        {
          "indexed": true,
          "internalType": "bytes32",
          "name": "previousAdminRole",
          "type": "bytes32"
        },
        {
          "indexed": true,
          "internalType": "bytes32",
          "name": "newAdminRole",
          "type": "bytes32"
        }
      ],
      "name": "RoleAdminChanged",
      "type": "event"
    },
    {
      "anonymous": false,
      "inputs": [
        {
          "indexed": true,
          "internalType": "bytes32",
          "name": "role",
          "type": "bytes32"
        },
        {
          "indexed": true,
          "internalType": "address",
          "name": "account",
          "type": "address"
        },
        {
          "indexed": true,
          "internalType": "address",
          "name": "sender",
          "type": "address"
        }
      ],
      "name": "RoleGranted",
      "type": "event"
    },
    {
      "anonymous": false,
      "inputs": [
        {
          "indexed": true,
          "internalType": "bytes32",
          "name": "role",
          "type": "bytes32"
        },
        {
          "indexed": true,
          "internalType": "address",
          "name": "account",
          "type": "address"
        },
        {
          "indexed": true,
          "internalType": "address",
          "name": "sender",
          "type": "address"
        }
      ],
      "name": "RoleRevoked",
      "type": "event"
    },
    {
      "inputs": [],
      "name": "CONTROLLER",
      "outputs": [
        {
          "internalType": "bytes32",
          "name": "",
          "type": "bytes32"
        }
      ],
      "stateMutability": "view",
      "type": "function"
    },
    {
      "inputs": [],
      "name": "DEFAULT_ADMIN_ROLE",
      "outputs": [
        {
          "internalType": "bytes32",
          "name": "",
          "type": "bytes32"
        }
      ],
      "stateMutability": "view",
      "type": "function"
    },
    {
      "inputs": [],
      "name": "SETDATA",
      "outputs": [
        {
          "internalType": "bytes32",
          "name": "",
          "type": "bytes32"
        }
      ],
      "stateMutability": "view",
      "type": "function"
    },
    {
      "inputs": [],
      "name": "SIGNER",
      "outputs": [
        {
          "internalType": "bytes32",
          "name": "",
          "type": "bytes32"
        }
      ],
      "stateMutability": "view",
      "type": "function"
    },
    {
      "inputs": [
        {
          "internalType": "address",
          "name": "identity",
          "type": "address"
        },
        {
          "internalType": "bytes32",
          "name": "delegateType",
          "type": "bytes32"
        },
        {
          "internalType": "address",
          "name": "delegate",
          "type": "address"
        },
        {
          "internalType": "uint256",
          "name": "validity",
          "type": "uint256"
        }
      ],
      "name": "addDelegate",
      "outputs": [],
      "stateMutability": "nonpayable",
      "type": "function"
    },
    {
      "inputs": [
        {
          "internalType": "address",
          "name": "identity",
          "type": "address"
        },
        {
          "internalType": "uint8",
          "name": "sigV",
          "type": "uint8"
        },
        {
          "internalType": "bytes32",
          "name": "sigR",
          "type": "bytes32"
        },
        {
          "internalType": "bytes32",
          "name": "sigS",
          "type": "bytes32"
        },
        {
          "internalType": "bytes32",
          "name": "delegateType",
          "type": "bytes32"
        },
        {
          "internalType": "address",
          "name": "delegate",
          "type": "address"
        },
        {
          "internalType": "uint256",
          "name": "validity",
          "type": "uint256"
        }
      ],
      "name": "addDelegateSigned",
      "outputs": [],
      "stateMutability": "nonpayable",
      "type": "function"
    },
    {
      "inputs": [
        {
          "internalType": "address",
          "name": "identity",
          "type": "address"
        },
        {
          "internalType": "address",
          "name": "newOwner",
          "type": "address"
        }
      ],
      "name": "changeOwner",
      "outputs": [],
      "stateMutability": "nonpayable",
      "type": "function"
    },
    {
      "inputs": [
        {
          "internalType": "address",
          "name": "identity",
          "type": "address"
        },
        {
          "internalType": "uint8",
          "name": "sigV",
          "type": "uint8"
        },
        {
          "internalType": "bytes32",
          "name": "sigR",
          "type": "bytes32"
        },
        {
          "internalType": "bytes32",
          "name": "sigS",
          "type": "bytes32"
        },
        {
          "internalType": "address",
          "name": "newOwner",
          "type": "address"
        }
      ],
      "name": "changeOwnerSigned",
      "outputs": [],
      "stateMutability": "nonpayable",
      "type": "function"
    },
    {
      "inputs": [
        {
          "internalType": "bytes32",
          "name": "",
          "type": "bytes32"
        }
      ],
      "name": "changeable",
      "outputs": [
        {
          "internalType": "bool",
          "name": "",
          "type": "bool"
        }
      ],
      "stateMutability": "view",
      "type": "function"
    },
    {
      "inputs": [
        {
          "internalType": "bytes32",
          "name": "_key",
          "type": "bytes32"
        },
        {
          "internalType": "bytes32",
          "name": "_data",
          "type": "bytes32"
        },
        {
          "internalType": "bool",
          "name": "_changeable",
          "type": "bool"
        }
      ],
      "name": "createData",
      "outputs": [],
      "stateMutability": "nonpayable",
      "type": "function"
    },
    {
      "inputs": [
        {
          "internalType": "bytes32",
          "name": "",
          "type": "bytes32"
        }
      ],
      "name": "data",
      "outputs": [
        {
          "internalType": "bytes32",
          "name": "",
          "type": "bytes32"
        }
      ],
      "stateMutability": "view",
      "type": "function"
    },
    {
      "inputs": [],
      "name": "ethereumDIDRegistry",
      "outputs": [
        {
          "internalType": "contract IEthereumDIDRegistry",
          "name": "",
          "type": "address"
        }
      ],
      "stateMutability": "view",
      "type": "function"
    },
    {
      "inputs": [
        {
          "internalType": "bytes32",
          "name": "_key",
          "type": "bytes32"
        }
      ],
      "name": "getData",
      "outputs": [
        {
          "internalType": "bytes32",
          "name": "",
          "type": "bytes32"
        }
      ],
      "stateMutability": "view",
      "type": "function"
    },
    {
      "inputs": [
        {
          "internalType": "bytes32",
          "name": "role",
          "type": "bytes32"
        }
      ],
      "name": "getRoleAdmin",
      "outputs": [
        {
          "internalType": "bytes32",
          "name": "",
          "type": "bytes32"
        }
      ],
      "stateMutability": "view",
      "type": "function"
    },
    {
      "inputs": [
        {
          "internalType": "bytes32",
          "name": "role",
          "type": "bytes32"
        },
        {
          "internalType": "uint256",
          "name": "index",
          "type": "uint256"
        }
      ],
      "name": "getRoleMember",
      "outputs": [
        {
          "internalType": "address",
          "name": "",
          "type": "address"
        }
      ],
      "stateMutability": "view",
      "type": "function"
    },
    {
      "inputs": [
        {
          "internalType": "bytes32",
          "name": "role",
          "type": "bytes32"
        }
      ],
      "name": "getRoleMemberCount",
      "outputs": [
        {
          "internalType": "uint256",
          "name": "",
          "type": "uint256"
        }
      ],
      "stateMutability": "view",
      "type": "function"
    },
    {
      "inputs": [
        {
          "internalType": "bytes32",
          "name": "role",
          "type": "bytes32"
        },
        {
          "internalType": "address",
          "name": "account",
          "type": "address"
        }
      ],
      "name": "grantRole",
      "outputs": [],
      "stateMutability": "nonpayable",
      "type": "function"
    },
    {
      "inputs": [
        {
          "internalType": "bytes32[]",
          "name": "roles",
          "type": "bytes32[]"
        },
        {
          "internalType": "address",
          "name": "account",
          "type": "address"
        }
      ],
      "name": "grantRoleArrayToAccount",
      "outputs": [],
      "stateMutability": "nonpayable",
      "type": "function"
    },
    {
      "inputs": [
        {
          "internalType": "bytes32",
          "name": "role",
          "type": "bytes32"
        },
        {
          "internalType": "address",
          "name": "account",
          "type": "address"
        }
      ],
      "name": "hasRole",
      "outputs": [
        {
          "internalType": "bool",
          "name": "",
          "type": "bool"
        }
      ],
      "stateMutability": "view",
      "type": "function"
    },
    {
      "inputs": [],
      "name": "owner",
      "outputs": [
        {
          "internalType": "address",
          "name": "",
          "type": "address"
        }
      ],
      "stateMutability": "view",
      "type": "function"
    },
    {
      "inputs": [],
      "name": "renounceOwnership",
      "outputs": [],
      "stateMutability": "nonpayable",
      "type": "function"
    },
    {
      "inputs": [
        {
          "internalType": "bytes32",
          "name": "role",
          "type": "bytes32"
        },
        {
          "internalType": "address",
          "name": "account",
          "type": "address"
        }
      ],
      "name": "renounceRole",
      "outputs": [],
      "stateMutability": "nonpayable",
      "type": "function"
    },
    {
      "inputs": [
        {
          "internalType": "address",
          "name": "identity",
          "type": "address"
        },
        {
          "internalType": "bytes32",
          "name": "name",
          "type": "bytes32"
        },
        {
          "internalType": "bytes",
          "name": "value",
          "type": "bytes"
        }
      ],
      "name": "revokeAttribute",
      "outputs": [],
      "stateMutability": "nonpayable",
      "type": "function"
    },
    {
      "inputs": [
        {
          "internalType": "address",
          "name": "identity",
          "type": "address"
        },
        {
          "internalType": "uint8",
          "name": "sigV",
          "type": "uint8"
        },
        {
          "internalType": "bytes32",
          "name": "sigR",
          "type": "bytes32"
        },
        {
          "internalType": "bytes32",
          "name": "sigS",
          "type": "bytes32"
        },
        {
          "internalType": "bytes32",
          "name": "name",
          "type": "bytes32"
        },
        {
          "internalType": "bytes",
          "name": "value",
          "type": "bytes"
        }
      ],
      "name": "revokeAttributeSigned",
      "outputs": [],
      "stateMutability": "nonpayable",
      "type": "function"
    },
    {
      "inputs": [
        {
          "internalType": "address",
          "name": "identity",
          "type": "address"
        },
        {
          "internalType": "bytes32",
          "name": "delegateType",
          "type": "bytes32"
        },
        {
          "internalType": "address",
          "name": "delegate",
          "type": "address"
        }
      ],
      "name": "revokeDelegate",
      "outputs": [],
      "stateMutability": "nonpayable",
      "type": "function"
    },
    {
      "inputs": [
        {
          "internalType": "address",
          "name": "identity",
          "type": "address"
        },
        {
          "internalType": "uint8",
          "name": "sigV",
          "type": "uint8"
        },
        {
          "internalType": "bytes32",
          "name": "sigR",
          "type": "bytes32"
        },
        {
          "internalType": "bytes32",
          "name": "sigS",
          "type": "bytes32"
        },
        {
          "internalType": "bytes32",
          "name": "delegateType",
          "type": "bytes32"
        },
        {
          "internalType": "address",
          "name": "delegate",
          "type": "address"
        }
      ],
      "name": "revokeDelegateSigned",
      "outputs": [],
      "stateMutability": "nonpayable",
      "type": "function"
    },
    {
      "inputs": [
        {
          "internalType": "bytes32",
          "name": "role",
          "type": "bytes32"
        },
        {
          "internalType": "address",
          "name": "account",
          "type": "address"
        }
      ],
      "name": "revokeRole",
      "outputs": [],
      "stateMutability": "nonpayable",
      "type": "function"
    },
    {
      "inputs": [
        {
          "internalType": "address",
          "name": "identity",
          "type": "address"
        },
        {
          "internalType": "bytes32",
          "name": "name",
          "type": "bytes32"
        },
        {
          "internalType": "bytes",
          "name": "value",
          "type": "bytes"
        },
        {
          "internalType": "uint256",
          "name": "validity",
          "type": "uint256"
        }
      ],
      "name": "setAttribute",
      "outputs": [],
      "stateMutability": "nonpayable",
      "type": "function"
    },
    {
      "inputs": [
        {
          "internalType": "address",
          "name": "identity",
          "type": "address"
        },
        {
          "internalType": "uint8",
          "name": "sigV",
          "type": "uint8"
        },
        {
          "internalType": "bytes32",
          "name": "sigR",
          "type": "bytes32"
        },
        {
          "internalType": "bytes32",
          "name": "sigS",
          "type": "bytes32"
        },
        {
          "internalType": "bytes32",
          "name": "name",
          "type": "bytes32"
        },
        {
          "internalType": "bytes",
          "name": "value",
          "type": "bytes"
        },
        {
          "internalType": "uint256",
          "name": "validity",
          "type": "uint256"
        }
      ],
      "name": "setAttributeSigned",
      "outputs": [],
      "stateMutability": "nonpayable",
      "type": "function"
    },
    {
      "inputs": [
        {
          "internalType": "bytes4",
          "name": "interfaceId",
          "type": "bytes4"
        }
      ],
      "name": "supportsInterface",
      "outputs": [
        {
          "internalType": "bool",
          "name": "",
          "type": "bool"
        }
      ],
      "stateMutability": "view",
      "type": "function"
    },
    {
      "inputs": [
        {
          "internalType": "address",
          "name": "newOwner",
          "type": "address"
        }
      ],
      "name": "transferOwnership",
      "outputs": [],
      "stateMutability": "nonpayable",
      "type": "function"
    },
    {
      "inputs": [
        {
          "internalType": "bytes32",
          "name": "_key",
          "type": "bytes32"
        },
        {
          "internalType": "bytes32",
          "name": "_data",
          "type": "bytes32"
        }
      ],
      "name": "updateData",
      "outputs": [],
      "stateMutability": "nonpayable",
      "type": "function"
    }
  ],
  "bytecode": "0x60806040527f396e2fd9898e955a506ac66decc9786ece3612f800e1380ebcf436f7df7df50b6004557f5e2931796677c90eb38af6e272cec8097e74bb7dc69e7b3945abf0e9a758970360055566766572694b657960c81b6006556403abd896006007553480156200007057600080fd5b5060405162002349380380620023498339810160408190526200009391620004e2565b6200009e336200029b565b8051825114620000e35760405162461bcd60e51b815260206004820152600c60248201526b08ae2eac2d840d8cadccee8d60a31b604482015260640160405180910390fd5b600380546001600160a01b0319166001600160a01b03851690811790915560065460405163538346b360e11b81523060048201526024810191909152336044820152640757b12c00606482015263a7068d6690608401600060405180830381600087803b1580156200015457600080fd5b505af115801562000169573d6000803e3d6000fd5b506200017d925060009150339050620002eb565b620001a97f70546d1c92f8c2132ae23a23f5177aa8526356051c7510df99f50e012d22152933620002eb565b620001d57f2aeb38be3df14d720aeb10a2de6df09b0fb3cd5c5ec256283a22d4593110ca4033620002eb565b620002017ffacb8508937ef82ebcd0fb9d790811d01ec75d93487a0067efec3eccd156c47333620002eb565b60005b8251811015620002745781818151811062000223576200022362000596565b60200260200101516008600085848151811062000244576200024462000596565b602002602001015181526020019081526020016000208190555080806200026b906200056c565b91505062000204565b50506005546000908152600960205260409020805460ff1916600117905550620005c29050565b600080546001600160a01b038381166001600160a01b0319831681178455604051919092169283917f8be0079c531659141344cd1fd0a4f28419497f9722a3daafe3b4186f6b6457e09190a35050565b6200030282826200032e60201b62000e481760201c565b60008281526002602090815260409091206200032991839062000e566200033e821b17901c565b505050565b6200033a82826200035e565b5050565b600062000355836001600160a01b038416620003e6565b90505b92915050565b60008281526001602090815260408083206001600160a01b038516845290915290205460ff166200033a5760008281526001602081815260408084206001600160a01b0386168086529252808420805460ff19169093179092559051339285917f2f8788117e7eff1d82e926ec794901d17c78024a50270940304540a733656f0d9190a45050565b60008181526001830160205260408120546200042f5750815460018181018455600084815260208082209093018490558454848252828601909352604090209190915562000358565b50600062000358565b600082601f8301126200044a57600080fd5b815160206001600160401b0380831115620004695762000469620005ac565b8260051b604051601f19603f83011681018181108482111715620004915762000491620005ac565b60405284815283810192508684018288018501891015620004b157600080fd5b600092505b85831015620004d6578051845292840192600192909201918401620004b6565b50979650505050505050565b600080600060608486031215620004f857600080fd5b83516001600160a01b03811681146200051057600080fd5b60208501519093506001600160401b03808211156200052e57600080fd5b6200053c8783880162000438565b935060408601519150808211156200055357600080fd5b50620005628682870162000438565b9150509250925092565b60006000198214156200058f57634e487b7160e01b600052601160045260246000fd5b5060010190565b634e487b7160e01b600052603260045260246000fd5b634e487b7160e01b600052604160045260246000fd5b611d7780620005d26000396000f3fe608060405234801561001057600080fd5b50600436106101ef5760003560e01c806380b29f7c1161010f578063a7068d66116100a2578063ee0fc12111610071578063ee0fc1211461047c578063f00d4b5d14610491578063f2fde38b146104a4578063fa61f1d9146104b757600080fd5b8063a7068d6614610430578063ca15c87314610443578063d547741f14610456578063e476af5c1461046957600080fd5b806391d14854116100de57806391d14854146103ef57806393072684146104025780639c2c1b2b14610415578063a217fddf1461042857600080fd5b806380b29f7c146103a557806388490f08146103b85780638da5cb5b146103cb5780639010d07c146103dc57600080fd5b806336568abe1161018757806366061fe91161015657806366061fe91461034c578063715018a6146103775780637ad4b0a41461037f5780637ada1b551461039257600080fd5b806336568abe146102cf5780633bd74915146102e257806354f6127f14610305578063582abd121461032557600080fd5b8063240cf1fa116101c3578063240cf1fa14610272578063248a9ca3146102855780632f2ff15d146102a9578063304d776f146102bc57600080fd5b8062c023da146101f45780630147fb0c1461020957806301ffc9a71461023c578063123b5e981461025f575b600080fd5b610207610202366004611587565b6104de565b005b610229610217366004611945565b60086020526000908152604090205481565b6040519081526020015b60405180910390f35b61024f61024a3660046119e1565b610564565b6040519015158152602001610233565b61020761026d3660046117e5565b61058f565b610207610280366004611643565b610623565b610229610293366004611945565b6000908152600160208190526040909120015490565b6102076102b736600461195e565b6106a7565b6102076102ca3660046119a3565b61078b565b6102076102dd36600461195e565b61083f565b61024f6102f0366004611945565b60096020526000908152604090205460ff1681565b610229610313366004611945565b60009081526008602052604090205490565b6102297f2aeb38be3df14d720aeb10a2de6df09b0fb3cd5c5ec256283a22d4593110ca4081565b60035461035f906001600160a01b031681565b6040516001600160a01b039091168152602001610233565b610207610861565b61020761038d3660046115e1565b610897565b6102076103a0366004611981565b610922565b6102076103b3366004611507565b6109d2565b6102076103c636600461186e565b610a5f565b6000546001600160a01b031661035f565b61035f6103ea366004611981565b610aa0565b61024f6103fd36600461195e565b610abf565b61020761041036600461169a565b610aea565b6102076104233660046116f9565b610b91565b610229600081565b61020761043e366004611543565b610c41565b610229610451366004611945565b610ca2565b61020761046436600461195e565b610cb9565b610207610477366004611763565b610cc3565b610229600080516020611d2283398151915281565b61020761049f3660046114d4565b610d18565b6102076104b23660046114b9565b610dad565b6102297ffacb8508937ef82ebcd0fb9d790811d01ec75d93487a0067efec3eccd156c47381565b600080516020611d228339815191526104f78133610e6b565b600354604051626011ed60e11b81526001600160a01b039091169062c023da9061052b908890889088908890600401611aa9565b600060405180830381600087803b15801561054557600080fd5b505af1158015610559573d6000803e3d6000fd5b505050505050505050565b60006001600160e01b03198216635a05180f60e01b1480610589575061058982610ecf565b92915050565b600080516020611d228339815191526105a88133610e6b565b6003546040516302476bd360e31b81526001600160a01b039091169063123b5e98906105e6908c908c908c908c908c908c908c908c90600401611b5f565b600060405180830381600087803b15801561060057600080fd5b505af1158015610614573d6000803e3d6000fd5b50505050505050505050505050565b6000546001600160a01b031633146106565760405162461bcd60e51b815260040161064d90611be4565b60405180910390fd5b60035460405163120678fd60e11b81526001600160a01b03878116600483015260ff87166024830152604482018690526064820185905283811660848301529091169063240cf1fa9060a40161052b565b600080516020611d228339815191526106c08133610e6b565b6106ca8383610f04565b7f2aeb38be3df14d720aeb10a2de6df09b0fb3cd5c5ec256283a22d4593110ca408314806107055750600080516020611d2283398151915283145b156107865760035460065460075460405163538346b360e11b815230600482015260248101929092526001600160a01b03858116604484015260648301919091529091169063a7068d6690608401600060405180830381600087803b15801561076d57600080fd5b505af1158015610781573d6000803e3d6000fd5b505050505b505050565b7ffacb8508937ef82ebcd0fb9d790811d01ec75d93487a0067efec3eccd156c4736107b68133610e6b565b6000848152600860205260409020548015806107d0575080155b6108125760405162461bcd60e51b81526020600482015260136024820152726461746120616c72656164792065786973747360681b604482015260640161064d565b50506000928352600960209081526040808520805460ff1916931515939093179092556008905290912055565b6108498282610f26565b60008281526002602052604090206107869082610fa0565b6000546001600160a01b0316331461088b5760405162461bcd60e51b815260040161064d90611be4565b6108956000610fb5565b565b600080516020611d228339815191526108b08133610e6b565b600354604051631eb52c2960e21b81526001600160a01b0390911690637ad4b0a4906108e89089908990899089908990600401611adb565b600060405180830381600087803b15801561090257600080fd5b505af1158015610916573d6000803e3d6000fd5b50505050505050505050565b7ffacb8508937ef82ebcd0fb9d790811d01ec75d93487a0067efec3eccd156c47361094d8133610e6b565b60008381526009602052604090205460ff166109bf5760405162461bcd60e51b815260206004820152602b60248201527f6461746120646f6573206e6f74206578697374206f72206974206973206e6f7460448201526a206368616e676561626c6560a81b606482015260840161064d565b5060009182526008602052604090912055565b600080516020611d228339815191526109eb8133610e6b565b60035460405163202ca7df60e21b81526001600160a01b038681166004830152602482018690528481166044830152909116906380b29f7c90606401600060405180830381600087803b158015610a4157600080fd5b505af1158015610a55573d6000803e3d6000fd5b5050505050505050565b60005b825181101561078657610a8e838281518110610a8057610a80611cf5565b6020026020010151836106a7565b80610a9881611cae565b915050610a62565b6000828152600260205260408120610ab89083611005565b9392505050565b60009182526001602090815260408084206001600160a01b0393909316845291905290205460ff1690565b600080516020611d22833981519152610b038133610e6b565b6003546040516324c1c9a160e21b81526001600160a01b03898116600483015260ff8916602483015260448201889052606482018790526084820186905284811660a48301529091169063930726849060c401600060405180830381600087803b158015610b7057600080fd5b505af1158015610b84573d6000803e3d6000fd5b5050505050505050505050565b600080516020611d22833981519152610baa8133610e6b565b600354604051639c2c1b2b60e01b81526001600160a01b038a8116600483015260ff8a16602483015260448201899052606482018890526084820187905285811660a483015260c4820185905290911690639c2c1b2b9060e4015b600060405180830381600087803b158015610c1f57600080fd5b505af1158015610c33573d6000803e3d6000fd5b505050505050505050505050565b600080516020611d22833981519152610c5a8133610e6b565b60035460405163538346b360e11b81526001600160a01b038781166004830152602482018790528581166044830152606482018590529091169063a7068d669060840161052b565b600081815260026020526040812061058990611011565b610849828261101b565b600080516020611d22833981519152610cdc8133610e6b565b60035460405163391dabd760e21b81526001600160a01b039091169063e476af5c90610c05908b908b908b908b908b908b908b90600401611b15565b6000546001600160a01b03163314610d425760405162461bcd60e51b815260040161064d90611be4565b60035460405163f00d4b5d60e01b81526001600160a01b03848116600483015283811660248301529091169063f00d4b5d90604401600060405180830381600087803b158015610d9157600080fd5b505af1158015610da5573d6000803e3d6000fd5b505050505050565b6000546001600160a01b03163314610dd75760405162461bcd60e51b815260040161064d90611be4565b6001600160a01b038116610e3c5760405162461bcd60e51b815260206004820152602660248201527f4f776e61626c653a206e6577206f776e657220697320746865207a65726f206160448201526564647265737360d01b606482015260840161064d565b610e4581610fb5565b50565b610e528282611042565b5050565b6000610ab8836001600160a01b0384166110ad565b610e758282610abf565b610e5257610e8d816001600160a01b031660146110fc565b610e988360206110fc565b604051602001610ea9929190611a34565b60408051601f198184030181529082905262461bcd60e51b825261064d91600401611bb1565b60006001600160e01b03198216637965db0b60e01b148061058957506301ffc9a760e01b6001600160e01b0319831614610589565b610f0e8282611298565b60008281526002602052604090206107869082610e56565b6001600160a01b0381163314610f965760405162461bcd60e51b815260206004820152602f60248201527f416363657373436f6e74726f6c3a2063616e206f6e6c792072656e6f756e636560448201526e103937b632b9903337b91039b2b63360891b606482015260840161064d565b610e5282826112bf565b6000610ab8836001600160a01b038416611326565b600080546001600160a01b038381166001600160a01b0319831681178455604051919092169283917f8be0079c531659141344cd1fd0a4f28419497f9722a3daafe3b4186f6b6457e09190a35050565b6000610ab88383611419565b6000610589825490565b600082815260016020819052604090912001546110388133610e6b565b61078683836112bf565b61104c8282610abf565b610e525760008281526001602081815260408084206001600160a01b0386168086529252808420805460ff19169093179092559051339285917f2f8788117e7eff1d82e926ec794901d17c78024a50270940304540a733656f0d9190a45050565b60008181526001830160205260408120546110f457508154600181810184556000848152602080822090930184905584548482528286019093526040902091909155610589565b506000610589565b6060600061110b836002611c31565b611116906002611c19565b67ffffffffffffffff81111561112e5761112e611d0b565b6040519080825280601f01601f191660200182016040528015611158576020820181803683370190505b509050600360fc1b8160008151811061117357611173611cf5565b60200101906001600160f81b031916908160001a905350600f60fb1b816001815181106111a2576111a2611cf5565b60200101906001600160f81b031916908160001a90535060006111c6846002611c31565b6111d1906001611c19565b90505b6001811115611249576f181899199a1a9b1b9c1cb0b131b232b360811b85600f166010811061120557611205611cf5565b1a60f81b82828151811061121b5761121b611cf5565b60200101906001600160f81b031916908160001a90535060049490941c9361124281611c97565b90506111d4565b508315610ab85760405162461bcd60e51b815260206004820181905260248201527f537472696e67733a20686578206c656e67746820696e73756666696369656e74604482015260640161064d565b600082815260016020819052604090912001546112b58133610e6b565b6107868383611042565b6112c98282610abf565b15610e525760008281526001602090815260408083206001600160a01b0385168085529252808320805460ff1916905551339285917ff6391f5c32d9c69d2a47ea670b442974b53935d1edc7fd64eb21e047a839171b9190a45050565b6000818152600183016020526040812054801561140f57600061134a600183611c50565b855490915060009061135e90600190611c50565b90508181146113c357600086600001828154811061137e5761137e611cf5565b90600052602060002001549050808760000184815481106113a1576113a1611cf5565b6000918252602080832090910192909255918252600188019052604090208390555b85548690806113d4576113d4611cdf565b600190038181906000526020600020016000905590558560010160008681526020019081526020016000206000905560019350505050610589565b6000915050610589565b600082600001828154811061143057611430611cf5565b9060005260206000200154905092915050565b80356001600160a01b038116811461145a57600080fd5b919050565b60008083601f84011261147157600080fd5b50813567ffffffffffffffff81111561148957600080fd5b6020830191508360208285010111156114a157600080fd5b9250929050565b803560ff8116811461145a57600080fd5b6000602082840312156114cb57600080fd5b610ab882611443565b600080604083850312156114e757600080fd5b6114f083611443565b91506114fe60208401611443565b90509250929050565b60008060006060848603121561151c57600080fd5b61152584611443565b92506020840135915061153a60408501611443565b90509250925092565b6000806000806080858703121561155957600080fd5b61156285611443565b93506020850135925061157760408601611443565b9396929550929360600135925050565b6000806000806060858703121561159d57600080fd5b6115a685611443565b935060208501359250604085013567ffffffffffffffff8111156115c957600080fd5b6115d58782880161145f565b95989497509550505050565b6000806000806000608086880312156115f957600080fd5b61160286611443565b945060208601359350604086013567ffffffffffffffff81111561162557600080fd5b6116318882890161145f565b96999598509660600135949350505050565b600080600080600060a0868803121561165b57600080fd5b61166486611443565b9450611672602087016114a8565b9350604086013592506060860135915061168e60808701611443565b90509295509295909350565b60008060008060008060c087890312156116b357600080fd5b6116bc87611443565b95506116ca602088016114a8565b94506040870135935060608701359250608087013591506116ed60a08801611443565b90509295509295509295565b600080600080600080600060e0888a03121561171457600080fd5b61171d88611443565b965061172b602089016114a8565b955060408801359450606088013593506080880135925061174e60a08901611443565b915060c0880135905092959891949750929550565b600080600080600080600060c0888a03121561177e57600080fd5b61178788611443565b9650611795602089016114a8565b955060408801359450606088013593506080880135925060a088013567ffffffffffffffff8111156117c657600080fd5b6117d28a828b0161145f565b989b979a50959850939692959293505050565b60008060008060008060008060e0898b03121561180157600080fd5b61180a89611443565b975061181860208a016114a8565b965060408901359550606089013594506080890135935060a089013567ffffffffffffffff81111561184957600080fd5b6118558b828c0161145f565b999c989b50969995989497949560c00135949350505050565b6000806040838503121561188157600080fd5b823567ffffffffffffffff8082111561189957600080fd5b818501915085601f8301126118ad57600080fd5b81356020828211156118c1576118c1611d0b565b8160051b604051601f19603f830116810181811086821117156118e6576118e6611d0b565b604052838152828101945085830182870184018b101561190557600080fd5b600096505b8487101561192857803586526001969096019594830194830161190a565b5096506119389050878201611443565b9450505050509250929050565b60006020828403121561195757600080fd5b5035919050565b6000806040838503121561197157600080fd5b823591506114fe60208401611443565b6000806040838503121561199457600080fd5b50508035926020909101359150565b6000806000606084860312156119b857600080fd5b8335925060208401359150604084013580151581146119d657600080fd5b809150509250925092565b6000602082840312156119f357600080fd5b81356001600160e01b031981168114610ab857600080fd5b81835281816020850137506000828201602090810191909152601f909101601f19169091010190565b7f416363657373436f6e74726f6c3a206163636f756e7420000000000000000000815260008351611a6c816017850160208801611c67565b7001034b99036b4b9b9b4b733903937b6329607d1b6017918401918201528351611a9d816028840160208801611c67565b01602801949350505050565b60018060a01b0385168152836020820152606060408201526000611ad1606083018486611a0b565b9695505050505050565b60018060a01b0386168152846020820152608060408201526000611b03608083018587611a0b565b90508260608301529695505050505050565b60018060a01b038816815260ff8716602082015285604082015284606082015283608082015260c060a08201526000611b5260c083018486611a0b565b9998505050505050505050565b60018060a01b038916815260ff8816602082015286604082015285606082015284608082015260e060a08201526000611b9c60e083018587611a0b565b90508260c08301529998505050505050505050565b6020815260008251806020840152611bd0816040850160208701611c67565b601f01601f19169190910160400192915050565b6020808252818101527f4f776e61626c653a2063616c6c6572206973206e6f7420746865206f776e6572604082015260600190565b60008219821115611c2c57611c2c611cc9565b500190565b6000816000190483118215151615611c4b57611c4b611cc9565b500290565b600082821015611c6257611c62611cc9565b500390565b60005b83811015611c82578181015183820152602001611c6a565b83811115611c91576000848401525b50505050565b600081611ca657611ca6611cc9565b506000190190565b6000600019821415611cc257611cc2611cc9565b5060010190565b634e487b7160e01b600052601160045260246000fd5b634e487b7160e01b600052603160045260246000fd5b634e487b7160e01b600052603260045260246000fd5b634e487b7160e01b600052604160045260246000fdfe70546d1c92f8c2132ae23a23f5177aa8526356051c7510df99f50e012d221529a26469706673582212209e93e80fa31e8141769c1eb24d471b1c2fde39cddd4d66409a9878a579c68e5c64736f6c63430008070033",
  "linkReferences": {},
  "deployedLinkReferences": {}
}