{
  "contracts/EthereumDIDRegistry.sol": {
    "EthereumDIDRegistry": {
      "abi": [
        {
          "anonymous": false,
          "inputs": [
            {
              "indexed": true,
              "internalType": "address",
              "name": "identity",
              "type": "address"
            },
            {
              "indexed": false,
              "internalType": "bytes32",
              "name": "name",
              "type": "bytes32"
            },
            {
              "indexed": false,
              "internalType": "bytes",
              "name": "value",
              "type": "bytes"
            },
            {
              "indexed": false,
              "internalType": "uint256",
              "name": "validTo",
              "type": "uint256"
            },
            {
              "indexed": false,
              "internalType": "uint256",
              "name": "previousChange",
              "type": "uint256"
            }
          ],
          "name": "DIDAttributeChanged",
          "type": "event"
        },
        {
          "anonymous": false,
          "inputs": [
            {
              "indexed": true,
              "internalType": "address",
              "name": "identity",
              "type": "address"
            },
            {
              "indexed": false,
              "internalType": "bytes32",
              "name": "delegateType",
              "type": "bytes32"
            },
            {
              "indexed": false,
              "internalType": "address",
              "name": "delegate",
              "type": "address"
            },
            {
              "indexed": false,
              "internalType": "uint256",
              "name": "validTo",
              "type": "uint256"
            },
            {
              "indexed": false,
              "internalType": "uint256",
              "name": "previousChange",
              "type": "uint256"
            }
          ],
          "name": "DIDDelegateChanged",
          "type": "event"
        },
        {
          "anonymous": false,
          "inputs": [
            {
              "indexed": true,
              "internalType": "address",
              "name": "identity",
              "type": "address"
            },
            {
              "indexed": false,
              "internalType": "address",
              "name": "owner",
              "type": "address"
            },
            {
              "indexed": false,
              "internalType": "uint256",
              "name": "previousChange",
              "type": "uint256"
            }
          ],
          "name": "DIDOwnerChanged",
          "type": "event"
        },
        {
          "inputs": [
            {
              "internalType": "address",
              "name": "identity",
              "type": "address"
            },
            {
              "internalType": "bytes32",
              "name": "delegateType",
              "type": "bytes32"
            },
            {
              "internalType": "address",
              "name": "delegate",
              "type": "address"
            },
            {
              "internalType": "uint256",
              "name": "validity",
              "type": "uint256"
            }
          ],
          "name": "addDelegate",
          "outputs": [],
          "stateMutability": "nonpayable",
          "type": "function"
        },
        {
          "inputs": [
            {
              "internalType": "address",
              "name": "identity",
              "type": "address"
            },
            {
              "internalType": "uint8",
              "name": "sigV",
              "type": "uint8"
            },
            {
              "internalType": "bytes32",
              "name": "sigR",
              "type": "bytes32"
            },
            {
              "internalType": "bytes32",
              "name": "sigS",
              "type": "bytes32"
            },
            {
              "internalType": "bytes32",
              "name": "delegateType",
              "type": "bytes32"
            },
            {
              "internalType": "address",
              "name": "delegate",
              "type": "address"
            },
            {
              "internalType": "uint256",
              "name": "validity",
              "type": "uint256"
            }
          ],
          "name": "addDelegateSigned",
          "outputs": [],
          "stateMutability": "nonpayable",
          "type": "function"
        },
        {
          "inputs": [
            {
              "internalType": "address",
              "name": "identity",
              "type": "address"
            },
            {
              "internalType": "address",
              "name": "newOwner",
              "type": "address"
            }
          ],
          "name": "changeOwner",
          "outputs": [],
          "stateMutability": "nonpayable",
          "type": "function"
        },
        {
          "inputs": [
            {
              "internalType": "address",
              "name": "identity",
              "type": "address"
            },
            {
              "internalType": "uint8",
              "name": "sigV",
              "type": "uint8"
            },
            {
              "internalType": "bytes32",
              "name": "sigR",
              "type": "bytes32"
            },
            {
              "internalType": "bytes32",
              "name": "sigS",
              "type": "bytes32"
            },
            {
              "internalType": "address",
              "name": "newOwner",
              "type": "address"
            }
          ],
          "name": "changeOwnerSigned",
          "outputs": [],
          "stateMutability": "nonpayable",
          "type": "function"
        },
        {
          "inputs": [
            {
              "internalType": "address",
              "name": "",
              "type": "address"
            }
          ],
          "name": "changed",
          "outputs": [
            {
              "internalType": "uint256",
              "name": "",
              "type": "uint256"
            }
          ],
          "stateMutability": "view",
          "type": "function"
        },
        {
          "inputs": [
            {
              "internalType": "address",
              "name": "",
              "type": "address"
            },
            {
              "internalType": "bytes32",
              "name": "",
              "type": "bytes32"
            },
            {
              "internalType": "address",
              "name": "",
              "type": "address"
            }
          ],
          "name": "delegates",
          "outputs": [
            {
              "internalType": "uint256",
              "name": "",
              "type": "uint256"
            }
          ],
          "stateMutability": "view",
          "type": "function"
        },
        {
          "inputs": [
            {
              "internalType": "address",
              "name": "identity",
              "type": "address"
            }
          ],
          "name": "identityOwner",
          "outputs": [
            {
              "internalType": "address",
              "name": "",
              "type": "address"
            }
          ],
          "stateMutability": "view",
          "type": "function"
        },
        {
          "inputs": [
            {
              "internalType": "address",
              "name": "",
              "type": "address"
            }
          ],
          "name": "nonce",
          "outputs": [
            {
              "internalType": "uint256",
              "name": "",
              "type": "uint256"
            }
          ],
          "stateMutability": "view",
          "type": "function"
        },
        {
          "inputs": [
            {
              "internalType": "address",
              "name": "",
              "type": "address"
            }
          ],
          "name": "owners",
          "outputs": [
            {
              "internalType": "address",
              "name": "",
              "type": "address"
            }
          ],
          "stateMutability": "view",
          "type": "function"
        },
        {
          "inputs": [
            {
              "internalType": "address",
              "name": "identity",
              "type": "address"
            },
            {
              "internalType": "bytes32",
              "name": "name",
              "type": "bytes32"
            },
            {
              "internalType": "bytes",
              "name": "value",
              "type": "bytes"
            }
          ],
          "name": "revokeAttribute",
          "outputs": [],
          "stateMutability": "nonpayable",
          "type": "function"
        },
        {
          "inputs": [
            {
              "internalType": "address",
              "name": "identity",
              "type": "address"
            },
            {
              "internalType": "uint8",
              "name": "sigV",
              "type": "uint8"
            },
            {
              "internalType": "bytes32",
              "name": "sigR",
              "type": "bytes32"
            },
            {
              "internalType": "bytes32",
              "name": "sigS",
              "type": "bytes32"
            },
            {
              "internalType": "bytes32",
              "name": "name",
              "type": "bytes32"
            },
            {
              "internalType": "bytes",
              "name": "value",
              "type": "bytes"
            }
          ],
          "name": "revokeAttributeSigned",
          "outputs": [],
          "stateMutability": "nonpayable",
          "type": "function"
        },
        {
          "inputs": [
            {
              "internalType": "address",
              "name": "identity",
              "type": "address"
            },
            {
              "internalType": "bytes32",
              "name": "delegateType",
              "type": "bytes32"
            },
            {
              "internalType": "address",
              "name": "delegate",
              "type": "address"
            }
          ],
          "name": "revokeDelegate",
          "outputs": [],
          "stateMutability": "nonpayable",
          "type": "function"
        },
        {
          "inputs": [
            {
              "internalType": "address",
              "name": "identity",
              "type": "address"
            },
            {
              "internalType": "uint8",
              "name": "sigV",
              "type": "uint8"
            },
            {
              "internalType": "bytes32",
              "name": "sigR",
              "type": "bytes32"
            },
            {
              "internalType": "bytes32",
              "name": "sigS",
              "type": "bytes32"
            },
            {
              "internalType": "bytes32",
              "name": "delegateType",
              "type": "bytes32"
            },
            {
              "internalType": "address",
              "name": "delegate",
              "type": "address"
            }
          ],
          "name": "revokeDelegateSigned",
          "outputs": [],
          "stateMutability": "nonpayable",
          "type": "function"
        },
        {
          "inputs": [
            {
              "internalType": "address",
              "name": "identity",
              "type": "address"
            },
            {
              "internalType": "bytes32",
              "name": "name",
              "type": "bytes32"
            },
            {
              "internalType": "bytes",
              "name": "value",
              "type": "bytes"
            },
            {
              "internalType": "uint256",
              "name": "validity",
              "type": "uint256"
            }
          ],
          "name": "setAttribute",
          "outputs": [],
          "stateMutability": "nonpayable",
          "type": "function"
        },
        {
          "inputs": [
            {
              "internalType": "address",
              "name": "identity",
              "type": "address"
            },
            {
              "internalType": "uint8",
              "name": "sigV",
              "type": "uint8"
            },
            {
              "internalType": "bytes32",
              "name": "sigR",
              "type": "bytes32"
            },
            {
              "internalType": "bytes32",
              "name": "sigS",
              "type": "bytes32"
            },
            {
              "internalType": "bytes32",
              "name": "name",
              "type": "bytes32"
            },
            {
              "internalType": "bytes",
              "name": "value",
              "type": "bytes"
            },
            {
              "internalType": "uint256",
              "name": "validity",
              "type": "uint256"
            }
          ],
          "name": "setAttributeSigned",
          "outputs": [],
          "stateMutability": "nonpayable",
          "type": "function"
        },
        {
          "inputs": [
            {
              "internalType": "address",
              "name": "identity",
              "type": "address"
            },
            {
              "internalType": "bytes32",
              "name": "delegateType",
              "type": "bytes32"
            },
            {
              "internalType": "address",
              "name": "delegate",
              "type": "address"
            }
          ],
          "name": "validDelegate",
          "outputs": [
            {
              "internalType": "bool",
              "name": "",
              "type": "bool"
            }
          ],
          "stateMutability": "view",
          "type": "function"
        }
      ],
      "evm": {
        "bytecode": {
          "linkReferences": {},
          "object": "608060405234801561001057600080fd5b506111ce806100206000396000f3fe608060405234801561001057600080fd5b50600436106100ff5760003560e01c806380b29f7c11610097578063a7068d6611610066578063a7068d66146102b5578063e476af5c146102c8578063f00d4b5d146102db578063f96d0f9f146102ee57600080fd5b806380b29f7c146102695780638733d4e81461027c578063930726841461028f5780639c2c1b2b146102a257600080fd5b8063240cf1fa116100d3578063240cf1fa146101b1578063622b2a3c146101c457806370ae92d2146102365780637ad4b0a41461025657600080fd5b8062c023da14610104578063022914a7146101195780630d44625b1461015f578063123b5e981461019e575b600080fd5b610117610112366004610d23565b61030e565b005b610142610127366004610c4e565b6000602081905290815260409020546001600160a01b031681565b6040516001600160a01b0390911681526020015b60405180910390f35b61019061016d366004610ca3565b600160209081526000938452604080852082529284528284209052825290205481565b604051908152602001610156565b6101176101ac366004610f81565b610321565b6101176101bf366004610ddf565b6103b1565b6102266101d2366004610ca3565b6001600160a01b039283166000908152600160209081526040808320815180840196909652815180870384018152958201825285519583019590952083529381528382209290941681529252902054421090565b6040519015158152602001610156565b610190610244366004610c4e565b60036020526000908152604090205481565b610117610264366004610d7d565b61047c565b610117610277366004610ca3565b610491565b61014261028a366004610c4e565b6104a2565b61011761029d366004610e36565b6104d2565b6101176102b0366004610e95565b6105a9565b6101176102c3366004610cdf565b61068a565b6101176102d6366004610eff565b610697565b6101176102e9366004610c70565b610719565b6101906102fc366004610c4e565b60026020526000908152604090205481565b61031b8433858585610728565b50505050565b6000601960f81b81306003826103368e6104a2565b6001600160a01b03166001600160a01b03168152602001908152602001600020548c89898989604051602001610374999897969594939291906110ab565b6040516020818303038152906040528051906020012090506103a68961039d8b8b8b8b876107cb565b87878787610887565b505050505050505050565b6000601960f81b81306003826103c68b6104a2565b6001600160a01b0316815260208082019290925260409081016000205481516001600160f81b0319968716818501529490951660218501526001600160601b0319606093841b8116602286015260368501959095528a831b851660568501526a31b430b733b2a7bbb732b960a91b606a8501529186901b90931660758301528051606981840301815260899092019052805191012090506104748661046e81888888876107cb565b8461093f565b505050505050565b61048a853386868686610887565b5050505050565b61049d833384846109f4565b505050565b6001600160a01b0380821660009081526020819052604081205490911680156104cb5792915050565b5090919050565b6000601960f81b81306003826104e78c6104a2565b6001600160a01b0316815260208082019290925260409081016000205481516001600160f81b0319968716818501529490951660218501526001600160601b0319606093841b8116602286015260368501959095528b831b851660568501526d7265766f6b6544656c656761746560901b606a850152607884018890529186901b90931660988301528051608c81840301815260ac9092019052805191012090506105a08761059981898989876107cb565b85856109f4565b50505050505050565b6000601960f81b81306003826105be8d6104a2565b6001600160a01b0316815260208082019290925260409081016000205490516001600160f81b031995861692810192909252929093166021840152606090811b6001600160601b0319908116602285015260368401929092528a811b821660568401526a61646444656c656761746560a81b606a8401526075830187905285901b16609582015260a9810183905260c901604051602081830303815290604052805190602001209050610680886106788a8a8a8a876107cb565b868686610aec565b5050505050505050565b61031b8433858585610aec565b6000601960f81b81306003826106ac8d6104a2565b6001600160a01b03166001600160a01b03168152602001908152602001600020548b8888886040516020016106e8989796959493929190611033565b604051602081830303815290604052805190602001209050610680886107118a8a8a8a876107cb565b868686610728565b61072482338361093f565b5050565b8484610733826104a2565b6001600160a01b0316816001600160a01b03161461075057600080fd5b6001600160a01b0387166000818152600260205260408082205490517f18ab6b2ae3d64306c00ce663125f2bd680e441a098de1635bd7ad8b0d44965e49261079f928a928a928a929091611121565b60405180910390a25050506001600160a01b039093166000908152600260205260409020439055505050565b6040805160008082526020820180845284905260ff8716928201929092526060810185905260808101849052819060019060a0016020604051602081039080840390855afa158015610821573d6000803e3d6000fd5b505050602060405103519050610836876104a2565b6001600160a01b0316816001600160a01b03161461085357600080fd5b6001600160a01b038116600090815260036020526040812080549161087783611167565b9091555090979650505050505050565b8585610892826104a2565b6001600160a01b0316816001600160a01b0316146108af57600080fd5b6001600160a01b0388167f18ab6b2ae3d64306c00ce663125f2bd680e441a098de1635bd7ad8b0d44965e48787876108e7884261114f565b6001600160a01b038e1660009081526002602052604090819020549051610912959493929190611121565b60405180910390a25050506001600160a01b03909416600090815260026020526040902043905550505050565b828261094a826104a2565b6001600160a01b0316816001600160a01b03161461096757600080fd5b6001600160a01b0385811660008181526020818152604080832080546001600160a01b031916958916958617905560028252918290205482519485529084015290917f38a5a6e68f30ed1ab45860a4afb34bcb2fc00f22ca462d249b8a8d40cda6f7a3910160405180910390a2505050506001600160a01b03166000908152600260205260409020439055565b83836109ff826104a2565b6001600160a01b0316816001600160a01b031614610a1c57600080fd5b6001600160a01b03868116600081815260016020908152604080832081518084018b90528251808203850181528184018085528151918601919091208652918452828520968a16808652968452828520429081905586865260029094529382902054908a90526060840195909552608083019190915260a0820193909352915190917f5a5084339536bcab65f20799fcc58724588145ca054bd2be626174b27ba156f7919081900360c00190a25050506001600160a01b0390921660009081526002602052604090204390555050565b8484610af7826104a2565b6001600160a01b0316816001600160a01b031614610b1457600080fd5b610b1e834361114f565b6001600160a01b03888116600081815260016020908152604080832081518084018d9052825180820385018152908301835280519084012084528252808320948a16835293905291909120919091557f5a5084339536bcab65f20799fcc58724588145ca054bd2be626174b27ba156f78686610b9a874261114f565b6001600160a01b038c81166000908152600260209081526040918290205482519687529490921691850191909152830152606082015260800161079f565b80356001600160a01b0381168114610bef57600080fd5b919050565b60008083601f840112610c0657600080fd5b50813567ffffffffffffffff811115610c1e57600080fd5b602083019150836020828501011115610c3657600080fd5b9250929050565b803560ff81168114610bef57600080fd5b600060208284031215610c6057600080fd5b610c6982610bd8565b9392505050565b60008060408385031215610c8357600080fd5b610c8c83610bd8565b9150610c9a60208401610bd8565b90509250929050565b600080600060608486031215610cb857600080fd5b610cc184610bd8565b925060208401359150610cd660408501610bd8565b90509250925092565b60008060008060808587031215610cf557600080fd5b610cfe85610bd8565b935060208501359250610d1360408601610bd8565b9396929550929360600135925050565b60008060008060608587031215610d3957600080fd5b610d4285610bd8565b935060208501359250604085013567ffffffffffffffff811115610d6557600080fd5b610d7187828801610bf4565b95989497509550505050565b600080600080600060808688031215610d9557600080fd5b610d9e86610bd8565b945060208601359350604086013567ffffffffffffffff811115610dc157600080fd5b610dcd88828901610bf4565b96999598509660600135949350505050565b600080600080600060a08688031215610df757600080fd5b610e0086610bd8565b9450610e0e60208701610c3d565b93506040860135925060608601359150610e2a60808701610bd8565b90509295509295909350565b60008060008060008060c08789031215610e4f57600080fd5b610e5887610bd8565b9550610e6660208801610c3d565b9450604087013593506060870135925060808701359150610e8960a08801610bd8565b90509295509295509295565b600080600080600080600060e0888a031215610eb057600080fd5b610eb988610bd8565b9650610ec760208901610c3d565b9550604088013594506060880135935060808801359250610eea60a08901610bd8565b915060c0880135905092959891949750929550565b600080600080600080600060c0888a031215610f1a57600080fd5b610f2388610bd8565b9650610f3160208901610c3d565b955060408801359450606088013593506080880135925060a088013567ffffffffffffffff811115610f6257600080fd5b610f6e8a828b01610bf4565b989b979a50959850939692959293505050565b60008060008060008060008060e0898b031215610f9d57600080fd5b610fa689610bd8565b9750610fb460208a01610c3d565b965060408901359550606089013594506080890135935060a089013567ffffffffffffffff811115610fe557600080fd5b610ff18b828c01610bf4565b999c989b50969995989497949560c00135949350505050565b81835281816020850137506000828201602090810191909152601f909101601f19169091010190565b6001600160f81b03198981168252881660018201526001600160601b0319606088811b821660028401526016830188905286901b1660368201526e7265766f6b6541747472696275746560881b604a820152605981018490526000828460798401375060009101607901908152979650505050505050565b6001600160f81b03198a81168252891660018201526001600160601b0319606089811b821660028401526016830189905287901b1660368201526b73657441747472696275746560a01b604a82015260568101859052600083856076840137506076920191820152609601979650505050505050565b85815260806020820152600061113b60808301868861100a565b604083019490945250606001529392505050565b6000821982111561116257611162611182565b500190565b600060001982141561117b5761117b611182565b5060010190565b634e487b7160e01b600052601160045260246000fdfea26469706673582212207f140f5909f0992425b368bb743c53420de2f0b773448862d86e3de616dcd23764736f6c63430008070033",
          "opcodes": "PUSH1 0x80 PUSH1 0x40 MSTORE CALLVALUE DUP1 ISZERO PUSH2 0x10 JUMPI PUSH1 0x0 DUP1 REVERT JUMPDEST POP PUSH2 0x11CE DUP1 PUSH2 0x20 PUSH1 0x0 CODECOPY PUSH1 0x0 RETURN INVALID PUSH1 0x80 PUSH1 0x40 MSTORE CALLVALUE DUP1 ISZERO PUSH2 0x10 JUMPI PUSH1 0x0 DUP1 REVERT JUMPDEST POP PUSH1 0x4 CALLDATASIZE LT PUSH2 0xFF JUMPI PUSH1 0x0 CALLDATALOAD PUSH1 0xE0 SHR DUP1 PUSH4 0x80B29F7C GT PUSH2 0x97 JUMPI DUP1 PUSH4 0xA7068D66 GT PUSH2 0x66 JUMPI DUP1 PUSH4 0xA7068D66 EQ PUSH2 0x2B5 JUMPI DUP1 PUSH4 0xE476AF5C EQ PUSH2 0x2C8 JUMPI DUP1 PUSH4 0xF00D4B5D EQ PUSH2 0x2DB JUMPI DUP1 PUSH4 0xF96D0F9F EQ PUSH2 0x2EE JUMPI PUSH1 0x0 DUP1 REVERT JUMPDEST DUP1 PUSH4 0x80B29F7C EQ PUSH2 0x269 JUMPI DUP1 PUSH4 0x8733D4E8 EQ PUSH2 0x27C JUMPI DUP1 PUSH4 0x93072684 EQ PUSH2 0x28F JUMPI DUP1 PUSH4 0x9C2C1B2B EQ PUSH2 0x2A2 JUMPI PUSH1 0x0 DUP1 REVERT JUMPDEST DUP1 PUSH4 0x240CF1FA GT PUSH2 0xD3 JUMPI DUP1 PUSH4 0x240CF1FA EQ PUSH2 0x1B1 JUMPI DUP1 PUSH4 0x622B2A3C EQ PUSH2 0x1C4 JUMPI DUP1 PUSH4 0x70AE92D2 EQ PUSH2 0x236 JUMPI DUP1 PUSH4 0x7AD4B0A4 EQ PUSH2 0x256 JUMPI PUSH1 0x0 DUP1 REVERT JUMPDEST DUP1 PUSH3 0xC023DA EQ PUSH2 0x104 JUMPI DUP1 PUSH4 0x22914A7 EQ PUSH2 0x119 JUMPI DUP1 PUSH4 0xD44625B EQ PUSH2 0x15F JUMPI DUP1 PUSH4 0x123B5E98 EQ PUSH2 0x19E JUMPI JUMPDEST PUSH1 0x0 DUP1 REVERT JUMPDEST PUSH2 0x117 PUSH2 0x112 CALLDATASIZE PUSH1 0x4 PUSH2 0xD23 JUMP JUMPDEST PUSH2 0x30E JUMP JUMPDEST STOP JUMPDEST PUSH2 0x142 PUSH2 0x127 CALLDATASIZE PUSH1 0x4 PUSH2 0xC4E JUMP JUMPDEST PUSH1 0x0 PUSH1 0x20 DUP2 SWAP1 MSTORE SWAP1 DUP2 MSTORE PUSH1 0x40 SWAP1 KECCAK256 SLOAD PUSH1 0x1 PUSH1 0x1 PUSH1 0xA0 SHL SUB AND DUP2 JUMP JUMPDEST PUSH1 0x40 MLOAD PUSH1 0x1 PUSH1 0x1 PUSH1 0xA0 SHL SUB SWAP1 SWAP2 AND DUP2 MSTORE PUSH1 0x20 ADD JUMPDEST PUSH1 0x40 MLOAD DUP1 SWAP2 SUB SWAP1 RETURN JUMPDEST PUSH2 0x190 PUSH2 0x16D CALLDATASIZE PUSH1 0x4 PUSH2 0xCA3 JUMP JUMPDEST PUSH1 0x1 PUSH1 0x20 SWAP1 DUP2 MSTORE PUSH1 0x0 SWAP4 DUP5 MSTORE PUSH1 0x40 DUP1 DUP6 KECCAK256 DUP3 MSTORE SWAP3 DUP5 MSTORE DUP3 DUP5 KECCAK256 SWAP1 MSTORE DUP3 MSTORE SWAP1 KECCAK256 SLOAD DUP2 JUMP JUMPDEST PUSH1 0x40 MLOAD SWAP1 DUP2 MSTORE PUSH1 0x20 ADD PUSH2 0x156 JUMP JUMPDEST PUSH2 0x117 PUSH2 0x1AC CALLDATASIZE PUSH1 0x4 PUSH2 0xF81 JUMP JUMPDEST PUSH2 0x321 JUMP JUMPDEST PUSH2 0x117 PUSH2 0x1BF CALLDATASIZE PUSH1 0x4 PUSH2 0xDDF JUMP JUMPDEST PUSH2 0x3B1 JUMP JUMPDEST PUSH2 0x226 PUSH2 0x1D2 CALLDATASIZE PUSH1 0x4 PUSH2 0xCA3 JUMP JUMPDEST PUSH1 0x1 PUSH1 0x1 PUSH1 0xA0 SHL SUB SWAP3 DUP4 AND PUSH1 0x0 SWAP1 DUP2 MSTORE PUSH1 0x1 PUSH1 0x20 SWAP1 DUP2 MSTORE PUSH1 0x40 DUP1 DUP4 KECCAK256 DUP2 MLOAD DUP1 DUP5 ADD SWAP7 SWAP1 SWAP7 MSTORE DUP2 MLOAD DUP1 DUP8 SUB DUP5 ADD DUP2 MSTORE SWAP6 DUP3 ADD DUP3 MSTORE DUP6 MLOAD SWAP6 DUP4 ADD SWAP6 SWAP1 SWAP6 KECCAK256 DUP4 MSTORE SWAP4 DUP2 MSTORE DUP4 DUP3 KECCAK256 SWAP3 SWAP1 SWAP5 AND DUP2 MSTORE SWAP3 MSTORE SWAP1 KECCAK256 SLOAD TIMESTAMP LT SWAP1 JUMP JUMPDEST PUSH1 0x40 MLOAD SWAP1 ISZERO ISZERO DUP2 MSTORE PUSH1 0x20 ADD PUSH2 0x156 JUMP JUMPDEST PUSH2 0x190 PUSH2 0x244 CALLDATASIZE PUSH1 0x4 PUSH2 0xC4E JUMP JUMPDEST PUSH1 0x3 PUSH1 0x20 MSTORE PUSH1 0x0 SWAP1 DUP2 MSTORE PUSH1 0x40 SWAP1 KECCAK256 SLOAD DUP2 JUMP JUMPDEST PUSH2 0x117 PUSH2 0x264 CALLDATASIZE PUSH1 0x4 PUSH2 0xD7D JUMP JUMPDEST PUSH2 0x47C JUMP JUMPDEST PUSH2 0x117 PUSH2 0x277 CALLDATASIZE PUSH1 0x4 PUSH2 0xCA3 JUMP JUMPDEST PUSH2 0x491 JUMP JUMPDEST PUSH2 0x142 PUSH2 0x28A CALLDATASIZE PUSH1 0x4 PUSH2 0xC4E JUMP JUMPDEST PUSH2 0x4A2 JUMP JUMPDEST PUSH2 0x117 PUSH2 0x29D CALLDATASIZE PUSH1 0x4 PUSH2 0xE36 JUMP JUMPDEST PUSH2 0x4D2 JUMP JUMPDEST PUSH2 0x117 PUSH2 0x2B0 CALLDATASIZE PUSH1 0x4 PUSH2 0xE95 JUMP JUMPDEST PUSH2 0x5A9 JUMP JUMPDEST PUSH2 0x117 PUSH2 0x2C3 CALLDATASIZE PUSH1 0x4 PUSH2 0xCDF JUMP JUMPDEST PUSH2 0x68A JUMP JUMPDEST PUSH2 0x117 PUSH2 0x2D6 CALLDATASIZE PUSH1 0x4 PUSH2 0xEFF JUMP JUMPDEST PUSH2 0x697 JUMP JUMPDEST PUSH2 0x117 PUSH2 0x2E9 CALLDATASIZE PUSH1 0x4 PUSH2 0xC70 JUMP JUMPDEST PUSH2 0x719 JUMP JUMPDEST PUSH2 0x190 PUSH2 0x2FC CALLDATASIZE PUSH1 0x4 PUSH2 0xC4E JUMP JUMPDEST PUSH1 0x2 PUSH1 0x20 MSTORE PUSH1 0x0 SWAP1 DUP2 MSTORE PUSH1 0x40 SWAP1 KECCAK256 SLOAD DUP2 JUMP JUMPDEST PUSH2 0x31B DUP5 CALLER DUP6 DUP6 DUP6 PUSH2 0x728 JUMP JUMPDEST POP POP POP POP JUMP JUMPDEST PUSH1 0x0 PUSH1 0x19 PUSH1 0xF8 SHL DUP2 ADDRESS PUSH1 0x3 DUP3 PUSH2 0x336 DUP15 PUSH2 0x4A2 JUMP JUMPDEST PUSH1 0x1 PUSH1 0x1 PUSH1 0xA0 SHL SUB AND PUSH1 0x1 PUSH1 0x1 PUSH1 0xA0 SHL SUB AND DUP2 MSTORE PUSH1 0x20 ADD SWAP1 DUP2 MSTORE PUSH1 0x20 ADD PUSH1 0x0 KECCAK256 SLOAD DUP13 DUP10 DUP10 DUP10 DUP10 PUSH1 0x40 MLOAD PUSH1 0x20 ADD PUSH2 0x374 SWAP10 SWAP9 SWAP8 SWAP7 SWAP6 SWAP5 SWAP4 SWAP3 SWAP2 SWAP1 PUSH2 0x10AB JUMP JUMPDEST PUSH1 0x40 MLOAD PUSH1 0x20 DUP2 DUP4 SUB SUB DUP2 MSTORE SWAP1 PUSH1 0x40 MSTORE DUP1 MLOAD SWAP1 PUSH1 0x20 ADD KECCAK256 SWAP1 POP PUSH2 0x3A6 DUP10 PUSH2 0x39D DUP12 DUP12 DUP12 DUP12 DUP8 PUSH2 0x7CB JUMP JUMPDEST DUP8 DUP8 DUP8 DUP8 PUSH2 0x887 JUMP JUMPDEST POP POP POP POP POP POP POP POP POP JUMP JUMPDEST PUSH1 0x0 PUSH1 0x19 PUSH1 0xF8 SHL DUP2 ADDRESS PUSH1 0x3 DUP3 PUSH2 0x3C6 DUP12 PUSH2 0x4A2 JUMP JUMPDEST PUSH1 0x1 PUSH1 0x1 PUSH1 0xA0 SHL SUB AND DUP2 MSTORE PUSH1 0x20 DUP1 DUP3 ADD SWAP3 SWAP1 SWAP3 MSTORE PUSH1 0x40 SWAP1 DUP2 ADD PUSH1 0x0 KECCAK256 SLOAD DUP2 MLOAD PUSH1 0x1 PUSH1 0x1 PUSH1 0xF8 SHL SUB NOT SWAP7 DUP8 AND DUP2 DUP6 ADD MSTORE SWAP5 SWAP1 SWAP6 AND PUSH1 0x21 DUP6 ADD MSTORE PUSH1 0x1 PUSH1 0x1 PUSH1 0x60 SHL SUB NOT PUSH1 0x60 SWAP4 DUP5 SHL DUP2 AND PUSH1 0x22 DUP7 ADD MSTORE PUSH1 0x36 DUP6 ADD SWAP6 SWAP1 SWAP6 MSTORE DUP11 DUP4 SHL DUP6 AND PUSH1 0x56 DUP6 ADD MSTORE PUSH11 0x31B430B733B2A7BBB732B9 PUSH1 0xA9 SHL PUSH1 0x6A DUP6 ADD MSTORE SWAP2 DUP7 SWAP1 SHL SWAP1 SWAP4 AND PUSH1 0x75 DUP4 ADD MSTORE DUP1 MLOAD PUSH1 0x69 DUP2 DUP5 SUB ADD DUP2 MSTORE PUSH1 0x89 SWAP1 SWAP3 ADD SWAP1 MSTORE DUP1 MLOAD SWAP2 ADD KECCAK256 SWAP1 POP PUSH2 0x474 DUP7 PUSH2 0x46E DUP2 DUP9 DUP9 DUP9 DUP8 PUSH2 0x7CB JUMP JUMPDEST DUP5 PUSH2 0x93F JUMP JUMPDEST POP POP POP POP POP POP JUMP JUMPDEST PUSH2 0x48A DUP6 CALLER DUP7 DUP7 DUP7 DUP7 PUSH2 0x887 JUMP JUMPDEST POP POP POP POP POP JUMP JUMPDEST PUSH2 0x49D DUP4 CALLER DUP5 DUP5 PUSH2 0x9F4 JUMP JUMPDEST POP POP POP JUMP JUMPDEST PUSH1 0x1 PUSH1 0x1 PUSH1 0xA0 SHL SUB DUP1 DUP3 AND PUSH1 0x0 SWAP1 DUP2 MSTORE PUSH1 0x20 DUP2 SWAP1 MSTORE PUSH1 0x40 DUP2 KECCAK256 SLOAD SWAP1 SWAP2 AND DUP1 ISZERO PUSH2 0x4CB JUMPI SWAP3 SWAP2 POP POP JUMP JUMPDEST POP SWAP1 SWAP2 SWAP1 POP JUMP JUMPDEST PUSH1 0x0 PUSH1 0x19 PUSH1 0xF8 SHL DUP2 ADDRESS PUSH1 0x3 DUP3 PUSH2 0x4E7 DUP13 PUSH2 0x4A2 JUMP JUMPDEST PUSH1 0x1 PUSH1 0x1 PUSH1 0xA0 SHL SUB AND DUP2 MSTORE PUSH1 0x20 DUP1 DUP3 ADD SWAP3 SWAP1 SWAP3 MSTORE PUSH1 0x40 SWAP1 DUP2 ADD PUSH1 0x0 KECCAK256 SLOAD DUP2 MLOAD PUSH1 0x1 PUSH1 0x1 PUSH1 0xF8 SHL SUB NOT SWAP7 DUP8 AND DUP2 DUP6 ADD MSTORE SWAP5 SWAP1 SWAP6 AND PUSH1 0x21 DUP6 ADD MSTORE PUSH1 0x1 PUSH1 0x1 PUSH1 0x60 SHL SUB NOT PUSH1 0x60 SWAP4 DUP5 SHL DUP2 AND PUSH1 0x22 DUP7 ADD MSTORE PUSH1 0x36 DUP6 ADD SWAP6 SWAP1 SWAP6 MSTORE DUP12 DUP4 SHL DUP6 AND PUSH1 0x56 DUP6 ADD MSTORE PUSH14 0x7265766F6B6544656C6567617465 PUSH1 0x90 SHL PUSH1 0x6A DUP6 ADD MSTORE PUSH1 0x78 DUP5 ADD DUP9 SWAP1 MSTORE SWAP2 DUP7 SWAP1 SHL SWAP1 SWAP4 AND PUSH1 0x98 DUP4 ADD MSTORE DUP1 MLOAD PUSH1 0x8C DUP2 DUP5 SUB ADD DUP2 MSTORE PUSH1 0xAC SWAP1 SWAP3 ADD SWAP1 MSTORE DUP1 MLOAD SWAP2 ADD KECCAK256 SWAP1 POP PUSH2 0x5A0 DUP8 PUSH2 0x599 DUP2 DUP10 DUP10 DUP10 DUP8 PUSH2 0x7CB JUMP JUMPDEST DUP6 DUP6 PUSH2 0x9F4 JUMP JUMPDEST POP POP POP POP POP POP POP JUMP JUMPDEST PUSH1 0x0 PUSH1 0x19 PUSH1 0xF8 SHL DUP2 ADDRESS PUSH1 0x3 DUP3 PUSH2 0x5BE DUP14 PUSH2 0x4A2 JUMP JUMPDEST PUSH1 0x1 PUSH1 0x1 PUSH1 0xA0 SHL SUB AND DUP2 MSTORE PUSH1 0x20 DUP1 DUP3 ADD SWAP3 SWAP1 SWAP3 MSTORE PUSH1 0x40 SWAP1 DUP2 ADD PUSH1 0x0 KECCAK256 SLOAD SWAP1 MLOAD PUSH1 0x1 PUSH1 0x1 PUSH1 0xF8 SHL SUB NOT SWAP6 DUP7 AND SWAP3 DUP2 ADD SWAP3 SWAP1 SWAP3 MSTORE SWAP3 SWAP1 SWAP4 AND PUSH1 0x21 DUP5 ADD MSTORE PUSH1 0x60 SWAP1 DUP2 SHL PUSH1 0x1 PUSH1 0x1 PUSH1 0x60 SHL SUB NOT SWAP1 DUP2 AND PUSH1 0x22 DUP6 ADD MSTORE PUSH1 0x36 DUP5 ADD SWAP3 SWAP1 SWAP3 MSTORE DUP11 DUP2 SHL DUP3 AND PUSH1 0x56 DUP5 ADD MSTORE PUSH11 0x61646444656C6567617465 PUSH1 0xA8 SHL PUSH1 0x6A DUP5 ADD MSTORE PUSH1 0x75 DUP4 ADD DUP8 SWAP1 MSTORE DUP6 SWAP1 SHL AND PUSH1 0x95 DUP3 ADD MSTORE PUSH1 0xA9 DUP2 ADD DUP4 SWAP1 MSTORE PUSH1 0xC9 ADD PUSH1 0x40 MLOAD PUSH1 0x20 DUP2 DUP4 SUB SUB DUP2 MSTORE SWAP1 PUSH1 0x40 MSTORE DUP1 MLOAD SWAP1 PUSH1 0x20 ADD KECCAK256 SWAP1 POP PUSH2 0x680 DUP9 PUSH2 0x678 DUP11 DUP11 DUP11 DUP11 DUP8 PUSH2 0x7CB JUMP JUMPDEST DUP7 DUP7 DUP7 PUSH2 0xAEC JUMP JUMPDEST POP POP POP POP POP POP POP POP JUMP JUMPDEST PUSH2 0x31B DUP5 CALLER DUP6 DUP6 DUP6 PUSH2 0xAEC JUMP JUMPDEST PUSH1 0x0 PUSH1 0x19 PUSH1 0xF8 SHL DUP2 ADDRESS PUSH1 0x3 DUP3 PUSH2 0x6AC DUP14 PUSH2 0x4A2 JUMP JUMPDEST PUSH1 0x1 PUSH1 0x1 PUSH1 0xA0 SHL SUB AND PUSH1 0x1 PUSH1 0x1 PUSH1 0xA0 SHL SUB AND DUP2 MSTORE PUSH1 0x20 ADD SWAP1 DUP2 MSTORE PUSH1 0x20 ADD PUSH1 0x0 KECCAK256 SLOAD DUP12 DUP9 DUP9 DUP9 PUSH1 0x40 MLOAD PUSH1 0x20 ADD PUSH2 0x6E8 SWAP9 SWAP8 SWAP7 SWAP6 SWAP5 SWAP4 SWAP3 SWAP2 SWAP1 PUSH2 0x1033 JUMP JUMPDEST PUSH1 0x40 MLOAD PUSH1 0x20 DUP2 DUP4 SUB SUB DUP2 MSTORE SWAP1 PUSH1 0x40 MSTORE DUP1 MLOAD SWAP1 PUSH1 0x20 ADD KECCAK256 SWAP1 POP PUSH2 0x680 DUP9 PUSH2 0x711 DUP11 DUP11 DUP11 DUP11 DUP8 PUSH2 0x7CB JUMP JUMPDEST DUP7 DUP7 DUP7 PUSH2 0x728 JUMP JUMPDEST PUSH2 0x724 DUP3 CALLER DUP4 PUSH2 0x93F JUMP JUMPDEST POP POP JUMP JUMPDEST DUP5 DUP5 PUSH2 0x733 DUP3 PUSH2 0x4A2 JUMP JUMPDEST PUSH1 0x1 PUSH1 0x1 PUSH1 0xA0 SHL SUB AND DUP2 PUSH1 0x1 PUSH1 0x1 PUSH1 0xA0 SHL SUB AND EQ PUSH2 0x750 JUMPI PUSH1 0x0 DUP1 REVERT JUMPDEST PUSH1 0x1 PUSH1 0x1 PUSH1 0xA0 SHL SUB DUP8 AND PUSH1 0x0 DUP2 DUP2 MSTORE PUSH1 0x2 PUSH1 0x20 MSTORE PUSH1 0x40 DUP1 DUP3 KECCAK256 SLOAD SWAP1 MLOAD PUSH32 0x18AB6B2AE3D64306C00CE663125F2BD680E441A098DE1635BD7AD8B0D44965E4 SWAP3 PUSH2 0x79F SWAP3 DUP11 SWAP3 DUP11 SWAP3 DUP11 SWAP3 SWAP1 SWAP2 PUSH2 0x1121 JUMP JUMPDEST PUSH1 0x40 MLOAD DUP1 SWAP2 SUB SWAP1 LOG2 POP POP POP PUSH1 0x1 PUSH1 0x1 PUSH1 0xA0 SHL SUB SWAP1 SWAP4 AND PUSH1 0x0 SWAP1 DUP2 MSTORE PUSH1 0x2 PUSH1 0x20 MSTORE PUSH1 0x40 SWAP1 KECCAK256 NUMBER SWAP1 SSTORE POP POP POP JUMP JUMPDEST PUSH1 0x40 DUP1 MLOAD PUSH1 0x0 DUP1 DUP3 MSTORE PUSH1 0x20 DUP3 ADD DUP1 DUP5 MSTORE DUP5 SWAP1 MSTORE PUSH1 0xFF DUP8 AND SWAP3 DUP3 ADD SWAP3 SWAP1 SWAP3 MSTORE PUSH1 0x60 DUP2 ADD DUP6 SWAP1 MSTORE PUSH1 0x80 DUP2 ADD DUP5 SWAP1 MSTORE DUP2 SWAP1 PUSH1 0x1 SWAP1 PUSH1 0xA0 ADD PUSH1 0x20 PUSH1 0x40 MLOAD PUSH1 0x20 DUP2 SUB SWAP1 DUP1 DUP5 SUB SWAP1 DUP6 GAS STATICCALL ISZERO DUP1 ISZERO PUSH2 0x821 JUMPI RETURNDATASIZE PUSH1 0x0 DUP1 RETURNDATACOPY RETURNDATASIZE PUSH1 0x0 REVERT JUMPDEST POP POP POP PUSH1 0x20 PUSH1 0x40 MLOAD SUB MLOAD SWAP1 POP PUSH2 0x836 DUP8 PUSH2 0x4A2 JUMP JUMPDEST PUSH1 0x1 PUSH1 0x1 PUSH1 0xA0 SHL SUB AND DUP2 PUSH1 0x1 PUSH1 0x1 PUSH1 0xA0 SHL SUB AND EQ PUSH2 0x853 JUMPI PUSH1 0x0 DUP1 REVERT JUMPDEST PUSH1 0x1 PUSH1 0x1 PUSH1 0xA0 SHL SUB DUP2 AND PUSH1 0x0 SWAP1 DUP2 MSTORE PUSH1 0x3 PUSH1 0x20 MSTORE PUSH1 0x40 DUP2 KECCAK256 DUP1 SLOAD SWAP2 PUSH2 0x877 DUP4 PUSH2 0x1167 JUMP JUMPDEST SWAP1 SWAP2 SSTORE POP SWAP1 SWAP8 SWAP7 POP POP POP POP POP POP POP JUMP JUMPDEST DUP6 DUP6 PUSH2 0x892 DUP3 PUSH2 0x4A2 JUMP JUMPDEST PUSH1 0x1 PUSH1 0x1 PUSH1 0xA0 SHL SUB AND DUP2 PUSH1 0x1 PUSH1 0x1 PUSH1 0xA0 SHL SUB AND EQ PUSH2 0x8AF JUMPI PUSH1 0x0 DUP1 REVERT JUMPDEST PUSH1 0x1 PUSH1 0x1 PUSH1 0xA0 SHL SUB DUP9 AND PUSH32 0x18AB6B2AE3D64306C00CE663125F2BD680E441A098DE1635BD7AD8B0D44965E4 DUP8 DUP8 DUP8 PUSH2 0x8E7 DUP9 TIMESTAMP PUSH2 0x114F JUMP JUMPDEST PUSH1 0x1 PUSH1 0x1 PUSH1 0xA0 SHL SUB DUP15 AND PUSH1 0x0 SWAP1 DUP2 MSTORE PUSH1 0x2 PUSH1 0x20 MSTORE PUSH1 0x40 SWAP1 DUP2 SWAP1 KECCAK256 SLOAD SWAP1 MLOAD PUSH2 0x912 SWAP6 SWAP5 SWAP4 SWAP3 SWAP2 SWAP1 PUSH2 0x1121 JUMP JUMPDEST PUSH1 0x40 MLOAD DUP1 SWAP2 SUB SWAP1 LOG2 POP POP POP PUSH1 0x1 PUSH1 0x1 PUSH1 0xA0 SHL SUB SWAP1 SWAP5 AND PUSH1 0x0 SWAP1 DUP2 MSTORE PUSH1 0x2 PUSH1 0x20 MSTORE PUSH1 0x40 SWAP1 KECCAK256 NUMBER SWAP1 SSTORE POP POP POP POP JUMP JUMPDEST DUP3 DUP3 PUSH2 0x94A DUP3 PUSH2 0x4A2 JUMP JUMPDEST PUSH1 0x1 PUSH1 0x1 PUSH1 0xA0 SHL SUB AND DUP2 PUSH1 0x1 PUSH1 0x1 PUSH1 0xA0 SHL SUB AND EQ PUSH2 0x967 JUMPI PUSH1 0x0 DUP1 REVERT JUMPDEST PUSH1 0x1 PUSH1 0x1 PUSH1 0xA0 SHL SUB DUP6 DUP2 AND PUSH1 0x0 DUP2 DUP2 MSTORE PUSH1 0x20 DUP2 DUP2 MSTORE PUSH1 0x40 DUP1 DUP4 KECCAK256 DUP1 SLOAD PUSH1 0x1 PUSH1 0x1 PUSH1 0xA0 SHL SUB NOT AND SWAP6 DUP10 AND SWAP6 DUP7 OR SWAP1 SSTORE PUSH1 0x2 DUP3 MSTORE SWAP2 DUP3 SWAP1 KECCAK256 SLOAD DUP3 MLOAD SWAP5 DUP6 MSTORE SWAP1 DUP5 ADD MSTORE SWAP1 SWAP2 PUSH32 0x38A5A6E68F30ED1AB45860A4AFB34BCB2FC00F22CA462D249B8A8D40CDA6F7A3 SWAP2 ADD PUSH1 0x40 MLOAD DUP1 SWAP2 SUB SWAP1 LOG2 POP POP POP POP PUSH1 0x1 PUSH1 0x1 PUSH1 0xA0 SHL SUB AND PUSH1 0x0 SWAP1 DUP2 MSTORE PUSH1 0x2 PUSH1 0x20 MSTORE PUSH1 0x40 SWAP1 KECCAK256 NUMBER SWAP1 SSTORE JUMP JUMPDEST DUP4 DUP4 PUSH2 0x9FF DUP3 PUSH2 0x4A2 JUMP JUMPDEST PUSH1 0x1 PUSH1 0x1 PUSH1 0xA0 SHL SUB AND DUP2 PUSH1 0x1 PUSH1 0x1 PUSH1 0xA0 SHL SUB AND EQ PUSH2 0xA1C JUMPI PUSH1 0x0 DUP1 REVERT JUMPDEST PUSH1 0x1 PUSH1 0x1 PUSH1 0xA0 SHL SUB DUP7 DUP2 AND PUSH1 0x0 DUP2 DUP2 MSTORE PUSH1 0x1 PUSH1 0x20 SWAP1 DUP2 MSTORE PUSH1 0x40 DUP1 DUP4 KECCAK256 DUP2 MLOAD DUP1 DUP5 ADD DUP12 SWAP1 MSTORE DUP3 MLOAD DUP1 DUP3 SUB DUP6 ADD DUP2 MSTORE DUP2 DUP5 ADD DUP1 DUP6 MSTORE DUP2 MLOAD SWAP2 DUP7 ADD SWAP2 SWAP1 SWAP2 KECCAK256 DUP7 MSTORE SWAP2 DUP5 MSTORE DUP3 DUP6 KECCAK256 SWAP7 DUP11 AND DUP1 DUP7 MSTORE SWAP7 DUP5 MSTORE DUP3 DUP6 KECCAK256 TIMESTAMP SWAP1 DUP2 SWAP1 SSTORE DUP7 DUP7 MSTORE PUSH1 0x2 SWAP1 SWAP5 MSTORE SWAP4 DUP3 SWAP1 KECCAK256 SLOAD SWAP1 DUP11 SWAP1 MSTORE PUSH1 0x60 DUP5 ADD SWAP6 SWAP1 SWAP6 MSTORE PUSH1 0x80 DUP4 ADD SWAP2 SWAP1 SWAP2 MSTORE PUSH1 0xA0 DUP3 ADD SWAP4 SWAP1 SWAP4 MSTORE SWAP2 MLOAD SWAP1 SWAP2 PUSH32 0x5A5084339536BCAB65F20799FCC58724588145CA054BD2BE626174B27BA156F7 SWAP2 SWAP1 DUP2 SWAP1 SUB PUSH1 0xC0 ADD SWAP1 LOG2 POP POP POP PUSH1 0x1 PUSH1 0x1 PUSH1 0xA0 SHL SUB SWAP1 SWAP3 AND PUSH1 0x0 SWAP1 DUP2 MSTORE PUSH1 0x2 PUSH1 0x20 MSTORE PUSH1 0x40 SWAP1 KECCAK256 NUMBER SWAP1 SSTORE POP POP JUMP JUMPDEST DUP5 DUP5 PUSH2 0xAF7 DUP3 PUSH2 0x4A2 JUMP JUMPDEST PUSH1 0x1 PUSH1 0x1 PUSH1 0xA0 SHL SUB AND DUP2 PUSH1 0x1 PUSH1 0x1 PUSH1 0xA0 SHL SUB AND EQ PUSH2 0xB14 JUMPI PUSH1 0x0 DUP1 REVERT JUMPDEST PUSH2 0xB1E DUP4 NUMBER PUSH2 0x114F JUMP JUMPDEST PUSH1 0x1 PUSH1 0x1 PUSH1 0xA0 SHL SUB DUP9 DUP2 AND PUSH1 0x0 DUP2 DUP2 MSTORE PUSH1 0x1 PUSH1 0x20 SWAP1 DUP2 MSTORE PUSH1 0x40 DUP1 DUP4 KECCAK256 DUP2 MLOAD DUP1 DUP5 ADD DUP14 SWAP1 MSTORE DUP3 MLOAD DUP1 DUP3 SUB DUP6 ADD DUP2 MSTORE SWAP1 DUP4 ADD DUP4 MSTORE DUP1 MLOAD SWAP1 DUP5 ADD KECCAK256 DUP5 MSTORE DUP3 MSTORE DUP1 DUP4 KECCAK256 SWAP5 DUP11 AND DUP4 MSTORE SWAP4 SWAP1 MSTORE SWAP2 SWAP1 SWAP2 KECCAK256 SWAP2 SWAP1 SWAP2 SSTORE PUSH32 0x5A5084339536BCAB65F20799FCC58724588145CA054BD2BE626174B27BA156F7 DUP7 DUP7 PUSH2 0xB9A DUP8 TIMESTAMP PUSH2 0x114F JUMP JUMPDEST PUSH1 0x1 PUSH1 0x1 PUSH1 0xA0 SHL SUB DUP13 DUP2 AND PUSH1 0x0 SWAP1 DUP2 MSTORE PUSH1 0x2 PUSH1 0x20 SWAP1 DUP2 MSTORE PUSH1 0x40 SWAP2 DUP3 SWAP1 KECCAK256 SLOAD DUP3 MLOAD SWAP7 DUP8 MSTORE SWAP5 SWAP1 SWAP3 AND SWAP2 DUP6 ADD SWAP2 SWAP1 SWAP2 MSTORE DUP4 ADD MSTORE PUSH1 0x60 DUP3 ADD MSTORE PUSH1 0x80 ADD PUSH2 0x79F JUMP JUMPDEST DUP1 CALLDATALOAD PUSH1 0x1 PUSH1 0x1 PUSH1 0xA0 SHL SUB DUP2 AND DUP2 EQ PUSH2 0xBEF JUMPI PUSH1 0x0 DUP1 REVERT JUMPDEST SWAP2 SWAP1 POP JUMP JUMPDEST PUSH1 0x0 DUP1 DUP4 PUSH1 0x1F DUP5 ADD SLT PUSH2 0xC06 JUMPI PUSH1 0x0 DUP1 REVERT JUMPDEST POP DUP2 CALLDATALOAD PUSH8 0xFFFFFFFFFFFFFFFF DUP2 GT ISZERO PUSH2 0xC1E JUMPI PUSH1 0x0 DUP1 REVERT JUMPDEST PUSH1 0x20 DUP4 ADD SWAP2 POP DUP4 PUSH1 0x20 DUP3 DUP6 ADD ADD GT ISZERO PUSH2 0xC36 JUMPI PUSH1 0x0 DUP1 REVERT JUMPDEST SWAP3 POP SWAP3 SWAP1 POP JUMP JUMPDEST DUP1 CALLDATALOAD PUSH1 0xFF DUP2 AND DUP2 EQ PUSH2 0xBEF JUMPI PUSH1 0x0 DUP1 REVERT JUMPDEST PUSH1 0x0 PUSH1 0x20 DUP3 DUP5 SUB SLT ISZERO PUSH2 0xC60 JUMPI PUSH1 0x0 DUP1 REVERT JUMPDEST PUSH2 0xC69 DUP3 PUSH2 0xBD8 JUMP JUMPDEST SWAP4 SWAP3 POP POP POP JUMP JUMPDEST PUSH1 0x0 DUP1 PUSH1 0x40 DUP4 DUP6 SUB SLT ISZERO PUSH2 0xC83 JUMPI PUSH1 0x0 DUP1 REVERT JUMPDEST PUSH2 0xC8C DUP4 PUSH2 0xBD8 JUMP JUMPDEST SWAP2 POP PUSH2 0xC9A PUSH1 0x20 DUP5 ADD PUSH2 0xBD8 JUMP JUMPDEST SWAP1 POP SWAP3 POP SWAP3 SWAP1 POP JUMP JUMPDEST PUSH1 0x0 DUP1 PUSH1 0x0 PUSH1 0x60 DUP5 DUP7 SUB SLT ISZERO PUSH2 0xCB8 JUMPI PUSH1 0x0 DUP1 REVERT JUMPDEST PUSH2 0xCC1 DUP5 PUSH2 0xBD8 JUMP JUMPDEST SWAP3 POP PUSH1 0x20 DUP5 ADD CALLDATALOAD SWAP2 POP PUSH2 0xCD6 PUSH1 0x40 DUP6 ADD PUSH2 0xBD8 JUMP JUMPDEST SWAP1 POP SWAP3 POP SWAP3 POP SWAP3 JUMP JUMPDEST PUSH1 0x0 DUP1 PUSH1 0x0 DUP1 PUSH1 0x80 DUP6 DUP8 SUB SLT ISZERO PUSH2 0xCF5 JUMPI PUSH1 0x0 DUP1 REVERT JUMPDEST PUSH2 0xCFE DUP6 PUSH2 0xBD8 JUMP JUMPDEST SWAP4 POP PUSH1 0x20 DUP6 ADD CALLDATALOAD SWAP3 POP PUSH2 0xD13 PUSH1 0x40 DUP7 ADD PUSH2 0xBD8 JUMP JUMPDEST SWAP4 SWAP7 SWAP3 SWAP6 POP SWAP3 SWAP4 PUSH1 0x60 ADD CALLDATALOAD SWAP3 POP POP JUMP JUMPDEST PUSH1 0x0 DUP1 PUSH1 0x0 DUP1 PUSH1 0x60 DUP6 DUP8 SUB SLT ISZERO PUSH2 0xD39 JUMPI PUSH1 0x0 DUP1 REVERT JUMPDEST PUSH2 0xD42 DUP6 PUSH2 0xBD8 JUMP JUMPDEST SWAP4 POP PUSH1 0x20 DUP6 ADD CALLDATALOAD SWAP3 POP PUSH1 0x40 DUP6 ADD CALLDATALOAD PUSH8 0xFFFFFFFFFFFFFFFF DUP2 GT ISZERO PUSH2 0xD65 JUMPI PUSH1 0x0 DUP1 REVERT JUMPDEST PUSH2 0xD71 DUP8 DUP3 DUP9 ADD PUSH2 0xBF4 JUMP JUMPDEST SWAP6 SWAP9 SWAP5 SWAP8 POP SWAP6 POP POP POP POP JUMP JUMPDEST PUSH1 0x0 DUP1 PUSH1 0x0 DUP1 PUSH1 0x0 PUSH1 0x80 DUP7 DUP9 SUB SLT ISZERO PUSH2 0xD95 JUMPI PUSH1 0x0 DUP1 REVERT JUMPDEST PUSH2 0xD9E DUP7 PUSH2 0xBD8 JUMP JUMPDEST SWAP5 POP PUSH1 0x20 DUP7 ADD CALLDATALOAD SWAP4 POP PUSH1 0x40 DUP7 ADD CALLDATALOAD PUSH8 0xFFFFFFFFFFFFFFFF DUP2 GT ISZERO PUSH2 0xDC1 JUMPI PUSH1 0x0 DUP1 REVERT JUMPDEST PUSH2 0xDCD DUP9 DUP3 DUP10 ADD PUSH2 0xBF4 JUMP JUMPDEST SWAP7 SWAP10 SWAP6 SWAP9 POP SWAP7 PUSH1 0x60 ADD CALLDATALOAD SWAP5 SWAP4 POP POP POP POP JUMP JUMPDEST PUSH1 0x0 DUP1 PUSH1 0x0 DUP1 PUSH1 0x0 PUSH1 0xA0 DUP7 DUP9 SUB SLT ISZERO PUSH2 0xDF7 JUMPI PUSH1 0x0 DUP1 REVERT JUMPDEST PUSH2 0xE00 DUP7 PUSH2 0xBD8 JUMP JUMPDEST SWAP5 POP PUSH2 0xE0E PUSH1 0x20 DUP8 ADD PUSH2 0xC3D JUMP JUMPDEST SWAP4 POP PUSH1 0x40 DUP7 ADD CALLDATALOAD SWAP3 POP PUSH1 0x60 DUP7 ADD CALLDATALOAD SWAP2 POP PUSH2 0xE2A PUSH1 0x80 DUP8 ADD PUSH2 0xBD8 JUMP JUMPDEST SWAP1 POP SWAP3 SWAP6 POP SWAP3 SWAP6 SWAP1 SWAP4 POP JUMP JUMPDEST PUSH1 0x0 DUP1 PUSH1 0x0 DUP1 PUSH1 0x0 DUP1 PUSH1 0xC0 DUP8 DUP10 SUB SLT ISZERO PUSH2 0xE4F JUMPI PUSH1 0x0 DUP1 REVERT JUMPDEST PUSH2 0xE58 DUP8 PUSH2 0xBD8 JUMP JUMPDEST SWAP6 POP PUSH2 0xE66 PUSH1 0x20 DUP9 ADD PUSH2 0xC3D JUMP JUMPDEST SWAP5 POP PUSH1 0x40 DUP8 ADD CALLDATALOAD SWAP4 POP PUSH1 0x60 DUP8 ADD CALLDATALOAD SWAP3 POP PUSH1 0x80 DUP8 ADD CALLDATALOAD SWAP2 POP PUSH2 0xE89 PUSH1 0xA0 DUP9 ADD PUSH2 0xBD8 JUMP JUMPDEST SWAP1 POP SWAP3 SWAP6 POP SWAP3 SWAP6 POP SWAP3 SWAP6 JUMP JUMPDEST PUSH1 0x0 DUP1 PUSH1 0x0 DUP1 PUSH1 0x0 DUP1 PUSH1 0x0 PUSH1 0xE0 DUP9 DUP11 SUB SLT ISZERO PUSH2 0xEB0 JUMPI PUSH1 0x0 DUP1 REVERT JUMPDEST PUSH2 0xEB9 DUP9 PUSH2 0xBD8 JUMP JUMPDEST SWAP7 POP PUSH2 0xEC7 PUSH1 0x20 DUP10 ADD PUSH2 0xC3D JUMP JUMPDEST SWAP6 POP PUSH1 0x40 DUP9 ADD CALLDATALOAD SWAP5 POP PUSH1 0x60 DUP9 ADD CALLDATALOAD SWAP4 POP PUSH1 0x80 DUP9 ADD CALLDATALOAD SWAP3 POP PUSH2 0xEEA PUSH1 0xA0 DUP10 ADD PUSH2 0xBD8 JUMP JUMPDEST SWAP2 POP PUSH1 0xC0 DUP9 ADD CALLDATALOAD SWAP1 POP SWAP3 SWAP6 SWAP9 SWAP2 SWAP5 SWAP8 POP SWAP3 SWAP6 POP JUMP JUMPDEST PUSH1 0x0 DUP1 PUSH1 0x0 DUP1 PUSH1 0x0 DUP1 PUSH1 0x0 PUSH1 0xC0 DUP9 DUP11 SUB SLT ISZERO PUSH2 0xF1A JUMPI PUSH1 0x0 DUP1 REVERT JUMPDEST PUSH2 0xF23 DUP9 PUSH2 0xBD8 JUMP JUMPDEST SWAP7 POP PUSH2 0xF31 PUSH1 0x20 DUP10 ADD PUSH2 0xC3D JUMP JUMPDEST SWAP6 POP PUSH1 0x40 DUP9 ADD CALLDATALOAD SWAP5 POP PUSH1 0x60 DUP9 ADD CALLDATALOAD SWAP4 POP PUSH1 0x80 DUP9 ADD CALLDATALOAD SWAP3 POP PUSH1 0xA0 DUP9 ADD CALLDATALOAD PUSH8 0xFFFFFFFFFFFFFFFF DUP2 GT ISZERO PUSH2 0xF62 JUMPI PUSH1 0x0 DUP1 REVERT JUMPDEST PUSH2 0xF6E DUP11 DUP3 DUP12 ADD PUSH2 0xBF4 JUMP JUMPDEST SWAP9 SWAP12 SWAP8 SWAP11 POP SWAP6 SWAP9 POP SWAP4 SWAP7 SWAP3 SWAP6 SWAP3 SWAP4 POP POP POP JUMP JUMPDEST PUSH1 0x0 DUP1 PUSH1 0x0 DUP1 PUSH1 0x0 DUP1 PUSH1 0x0 DUP1 PUSH1 0xE0 DUP10 DUP12 SUB SLT ISZERO PUSH2 0xF9D JUMPI PUSH1 0x0 DUP1 REVERT JUMPDEST PUSH2 0xFA6 DUP10 PUSH2 0xBD8 JUMP JUMPDEST SWAP8 POP PUSH2 0xFB4 PUSH1 0x20 DUP11 ADD PUSH2 0xC3D JUMP JUMPDEST SWAP7 POP PUSH1 0x40 DUP10 ADD CALLDATALOAD SWAP6 POP PUSH1 0x60 DUP10 ADD CALLDATALOAD SWAP5 POP PUSH1 0x80 DUP10 ADD CALLDATALOAD SWAP4 POP PUSH1 0xA0 DUP10 ADD CALLDATALOAD PUSH8 0xFFFFFFFFFFFFFFFF DUP2 GT ISZERO PUSH2 0xFE5 JUMPI PUSH1 0x0 DUP1 REVERT JUMPDEST PUSH2 0xFF1 DUP12 DUP3 DUP13 ADD PUSH2 0xBF4 JUMP JUMPDEST SWAP10 SWAP13 SWAP9 SWAP12 POP SWAP7 SWAP10 SWAP6 SWAP9 SWAP5 SWAP8 SWAP5 SWAP6 PUSH1 0xC0 ADD CALLDATALOAD SWAP5 SWAP4 POP POP POP POP JUMP JUMPDEST DUP2 DUP4 MSTORE DUP2 DUP2 PUSH1 0x20 DUP6 ADD CALLDATACOPY POP PUSH1 0x0 DUP3 DUP3 ADD PUSH1 0x20 SWAP1 DUP2 ADD SWAP2 SWAP1 SWAP2 MSTORE PUSH1 0x1F SWAP1 SWAP2 ADD PUSH1 0x1F NOT AND SWAP1 SWAP2 ADD ADD SWAP1 JUMP JUMPDEST PUSH1 0x1 PUSH1 0x1 PUSH1 0xF8 SHL SUB NOT DUP10 DUP2 AND DUP3 MSTORE DUP9 AND PUSH1 0x1 DUP3 ADD MSTORE PUSH1 0x1 PUSH1 0x1 PUSH1 0x60 SHL SUB NOT PUSH1 0x60 DUP9 DUP2 SHL DUP3 AND PUSH1 0x2 DUP5 ADD MSTORE PUSH1 0x16 DUP4 ADD DUP9 SWAP1 MSTORE DUP7 SWAP1 SHL AND PUSH1 0x36 DUP3 ADD MSTORE PUSH15 0x7265766F6B65417474726962757465 PUSH1 0x88 SHL PUSH1 0x4A DUP3 ADD MSTORE PUSH1 0x59 DUP2 ADD DUP5 SWAP1 MSTORE PUSH1 0x0 DUP3 DUP5 PUSH1 0x79 DUP5 ADD CALLDATACOPY POP PUSH1 0x0 SWAP2 ADD PUSH1 0x79 ADD SWAP1 DUP2 MSTORE SWAP8 SWAP7 POP POP POP POP POP POP POP JUMP JUMPDEST PUSH1 0x1 PUSH1 0x1 PUSH1 0xF8 SHL SUB NOT DUP11 DUP2 AND DUP3 MSTORE DUP10 AND PUSH1 0x1 DUP3 ADD MSTORE PUSH1 0x1 PUSH1 0x1 PUSH1 0x60 SHL SUB NOT PUSH1 0x60 DUP10 DUP2 SHL DUP3 AND PUSH1 0x2 DUP5 ADD MSTORE PUSH1 0x16 DUP4 ADD DUP10 SWAP1 MSTORE DUP8 SWAP1 SHL AND PUSH1 0x36 DUP3 ADD MSTORE PUSH12 0x736574417474726962757465 PUSH1 0xA0 SHL PUSH1 0x4A DUP3 ADD MSTORE PUSH1 0x56 DUP2 ADD DUP6 SWAP1 MSTORE PUSH1 0x0 DUP4 DUP6 PUSH1 0x76 DUP5 ADD CALLDATACOPY POP PUSH1 0x76 SWAP3 ADD SWAP2 DUP3 ADD MSTORE PUSH1 0x96 ADD SWAP8 SWAP7 POP POP POP POP POP POP POP JUMP JUMPDEST DUP6 DUP2 MSTORE PUSH1 0x80 PUSH1 0x20 DUP3 ADD MSTORE PUSH1 0x0 PUSH2 0x113B PUSH1 0x80 DUP4 ADD DUP7 DUP9 PUSH2 0x100A JUMP JUMPDEST PUSH1 0x40 DUP4 ADD SWAP5 SWAP1 SWAP5 MSTORE POP PUSH1 0x60 ADD MSTORE SWAP4 SWAP3 POP POP POP JUMP JUMPDEST PUSH1 0x0 DUP3 NOT DUP3 GT ISZERO PUSH2 0x1162 JUMPI PUSH2 0x1162 PUSH2 0x1182 JUMP JUMPDEST POP ADD SWAP1 JUMP JUMPDEST PUSH1 0x0 PUSH1 0x0 NOT DUP3 EQ ISZERO PUSH2 0x117B JUMPI PUSH2 0x117B PUSH2 0x1182 JUMP JUMPDEST POP PUSH1 0x1 ADD SWAP1 JUMP JUMPDEST PUSH4 0x4E487B71 PUSH1 0xE0 SHL PUSH1 0x0 MSTORE PUSH1 0x11 PUSH1 0x4 MSTORE PUSH1 0x24 PUSH1 0x0 REVERT INVALID LOG2 PUSH5 0x6970667358 0x22 SLT KECCAK256 PUSH32 0x140F5909F0992425B368BB743C53420DE2F0B773448862D86E3DE616DCD23764 PUSH20 0x6F6C634300080700330000000000000000000000 "
        },
        "methodIdentifiers": {
          "addDelegate(address,bytes32,address,uint256)": "a7068d66",
          "addDelegateSigned(address,uint8,bytes32,bytes32,bytes32,address,uint256)": "9c2c1b2b",
          "changeOwner(address,address)": "f00d4b5d",
          "changeOwnerSigned(address,uint8,bytes32,bytes32,address)": "240cf1fa",
          "changed(address)": "f96d0f9f",
          "delegates(address,bytes32,address)": "0d44625b",
          "identityOwner(address)": "8733d4e8",
          "nonce(address)": "70ae92d2",
          "owners(address)": "022914a7",
          "revokeAttribute(address,bytes32,bytes)": "00c023da",
          "revokeAttributeSigned(address,uint8,bytes32,bytes32,bytes32,bytes)": "e476af5c",
          "revokeDelegate(address,bytes32,address)": "80b29f7c",
          "revokeDelegateSigned(address,uint8,bytes32,bytes32,bytes32,address)": "93072684",
          "setAttribute(address,bytes32,bytes,uint256)": "7ad4b0a4",
          "setAttributeSigned(address,uint8,bytes32,bytes32,bytes32,bytes,uint256)": "123b5e98",
          "validDelegate(address,bytes32,address)": "622b2a3c"
        }
      }
    }
  }
}