{
  "_format": "hh-sol-artifact-1",
  "contractName": "EthereumDIDRegistry",
  "sourceName": "contracts/EthereumDIDRegistry.sol",
  "abi": [
    {
      "anonymous": false,
      "inputs": [
        {
          "indexed": true,
          "internalType": "address",
          "name": "identity",
          "type": "address"
        },
        {
          "indexed": false,
          "internalType": "bytes32",
          "name": "name",
          "type": "bytes32"
        },
        {
          "indexed": false,
          "internalType": "bytes",
          "name": "value",
          "type": "bytes"
        },
        {
          "indexed": false,
          "internalType": "uint256",
          "name": "validTo",
          "type": "uint256"
        },
        {
          "indexed": false,
          "internalType": "uint256",
          "name": "previousChange",
          "type": "uint256"
        }
      ],
      "name": "DIDAttributeChanged",
      "type": "event"
    },
    {
      "anonymous": false,
      "inputs": [
        {
          "indexed": true,
          "internalType": "address",
          "name": "identity",
          "type": "address"
        },
        {
          "indexed": false,
          "internalType": "bytes32",
          "name": "delegateType",
          "type": "bytes32"
        },
        {
          "indexed": false,
          "internalType": "address",
          "name": "delegate",
          "type": "address"
        },
        {
          "indexed": false,
          "internalType": "uint256",
          "name": "validTo",
          "type": "uint256"
        },
        {
          "indexed": false,
          "internalType": "uint256",
          "name": "previousChange",
          "type": "uint256"
        }
      ],
      "name": "DIDDelegateChanged",
      "type": "event"
    },
    {
      "anonymous": false,
      "inputs": [
        {
          "indexed": true,
          "internalType": "address",
          "name": "identity",
          "type": "address"
        },
        {
          "indexed": false,
          "internalType": "address",
          "name": "owner",
          "type": "address"
        },
        {
          "indexed": false,
          "internalType": "uint256",
          "name": "previousChange",
          "type": "uint256"
        }
      ],
      "name": "DIDOwnerChanged",
      "type": "event"
    },
    {
      "inputs": [
        {
          "internalType": "address",
          "name": "identity",
          "type": "address"
        },
        {
          "internalType": "bytes32",
          "name": "delegateType",
          "type": "bytes32"
        },
        {
          "internalType": "address",
          "name": "delegate",
          "type": "address"
        },
        {
          "internalType": "uint256",
          "name": "validity",
          "type": "uint256"
        }
      ],
      "name": "addDelegate",
      "outputs": [],
      "stateMutability": "nonpayable",
      "type": "function"
    },
    {
      "inputs": [
        {
          "internalType": "address",
          "name": "identity",
          "type": "address"
        },
        {
          "internalType": "uint8",
          "name": "sigV",
          "type": "uint8"
        },
        {
          "internalType": "bytes32",
          "name": "sigR",
          "type": "bytes32"
        },
        {
          "internalType": "bytes32",
          "name": "sigS",
          "type": "bytes32"
        },
        {
          "internalType": "bytes32",
          "name": "delegateType",
          "type": "bytes32"
        },
        {
          "internalType": "address",
          "name": "delegate",
          "type": "address"
        },
        {
          "internalType": "uint256",
          "name": "validity",
          "type": "uint256"
        }
      ],
      "name": "addDelegateSigned",
      "outputs": [],
      "stateMutability": "nonpayable",
      "type": "function"
    },
    {
      "inputs": [
        {
          "internalType": "address",
          "name": "identity",
          "type": "address"
        },
        {
          "internalType": "address",
          "name": "newOwner",
          "type": "address"
        }
      ],
      "name": "changeOwner",
      "outputs": [],
      "stateMutability": "nonpayable",
      "type": "function"
    },
    {
      "inputs": [
        {
          "internalType": "address",
          "name": "identity",
          "type": "address"
        },
        {
          "internalType": "uint8",
          "name": "sigV",
          "type": "uint8"
        },
        {
          "internalType": "bytes32",
          "name": "sigR",
          "type": "bytes32"
        },
        {
          "internalType": "bytes32",
          "name": "sigS",
          "type": "bytes32"
        },
        {
          "internalType": "address",
          "name": "newOwner",
          "type": "address"
        }
      ],
      "name": "changeOwnerSigned",
      "outputs": [],
      "stateMutability": "nonpayable",
      "type": "function"
    },
    {
      "inputs": [
        {
          "internalType": "address",
          "name": "",
          "type": "address"
        }
      ],
      "name": "changed",
      "outputs": [
        {
          "internalType": "uint256",
          "name": "",
          "type": "uint256"
        }
      ],
      "stateMutability": "view",
      "type": "function"
    },
    {
      "inputs": [
        {
          "internalType": "address",
          "name": "",
          "type": "address"
        },
        {
          "internalType": "bytes32",
          "name": "",
          "type": "bytes32"
        },
        {
          "internalType": "address",
          "name": "",
          "type": "address"
        }
      ],
      "name": "delegates",
      "outputs": [
        {
          "internalType": "uint256",
          "name": "",
          "type": "uint256"
        }
      ],
      "stateMutability": "view",
      "type": "function"
    },
    {
      "inputs": [
        {
          "internalType": "address",
          "name": "identity",
          "type": "address"
        }
      ],
      "name": "identityOwner",
      "outputs": [
        {
          "internalType": "address",
          "name": "",
          "type": "address"
        }
      ],
      "stateMutability": "view",
      "type": "function"
    },
    {
      "inputs": [
        {
          "internalType": "address",
          "name": "",
          "type": "address"
        }
      ],
      "name": "nonce",
      "outputs": [
        {
          "internalType": "uint256",
          "name": "",
          "type": "uint256"
        }
      ],
      "stateMutability": "view",
      "type": "function"
    },
    {
      "inputs": [
        {
          "internalType": "address",
          "name": "",
          "type": "address"
        }
      ],
      "name": "owners",
      "outputs": [
        {
          "internalType": "address",
          "name": "",
          "type": "address"
        }
      ],
      "stateMutability": "view",
      "type": "function"
    },
    {
      "inputs": [
        {
          "internalType": "address",
          "name": "identity",
          "type": "address"
        },
        {
          "internalType": "bytes32",
          "name": "name",
          "type": "bytes32"
        },
        {
          "internalType": "bytes",
          "name": "value",
          "type": "bytes"
        }
      ],
      "name": "revokeAttribute",
      "outputs": [],
      "stateMutability": "nonpayable",
      "type": "function"
    },
    {
      "inputs": [
        {
          "internalType": "address",
          "name": "identity",
          "type": "address"
        },
        {
          "internalType": "uint8",
          "name": "sigV",
          "type": "uint8"
        },
        {
          "internalType": "bytes32",
          "name": "sigR",
          "type": "bytes32"
        },
        {
          "internalType": "bytes32",
          "name": "sigS",
          "type": "bytes32"
        },
        {
          "internalType": "bytes32",
          "name": "name",
          "type": "bytes32"
        },
        {
          "internalType": "bytes",
          "name": "value",
          "type": "bytes"
        }
      ],
      "name": "revokeAttributeSigned",
      "outputs": [],
      "stateMutability": "nonpayable",
      "type": "function"
    },
    {
      "inputs": [
        {
          "internalType": "address",
          "name": "identity",
          "type": "address"
        },
        {
          "internalType": "bytes32",
          "name": "delegateType",
          "type": "bytes32"
        },
        {
          "internalType": "address",
          "name": "delegate",
          "type": "address"
        }
      ],
      "name": "revokeDelegate",
      "outputs": [],
      "stateMutability": "nonpayable",
      "type": "function"
    },
    {
      "inputs": [
        {
          "internalType": "address",
          "name": "identity",
          "type": "address"
        },
        {
          "internalType": "uint8",
          "name": "sigV",
          "type": "uint8"
        },
        {
          "internalType": "bytes32",
          "name": "sigR",
          "type": "bytes32"
        },
        {
          "internalType": "bytes32",
          "name": "sigS",
          "type": "bytes32"
        },
        {
          "internalType": "bytes32",
          "name": "delegateType",
          "type": "bytes32"
        },
        {
          "internalType": "address",
          "name": "delegate",
          "type": "address"
        }
      ],
      "name": "revokeDelegateSigned",
      "outputs": [],
      "stateMutability": "nonpayable",
      "type": "function"
    },
    {
      "inputs": [
        {
          "internalType": "address",
          "name": "identity",
          "type": "address"
        },
        {
          "internalType": "bytes32",
          "name": "name",
          "type": "bytes32"
        },
        {
          "internalType": "bytes",
          "name": "value",
          "type": "bytes"
        },
        {
          "internalType": "uint256",
          "name": "validity",
          "type": "uint256"
        }
      ],
      "name": "setAttribute",
      "outputs": [],
      "stateMutability": "nonpayable",
      "type": "function"
    },
    {
      "inputs": [
        {
          "internalType": "address",
          "name": "identity",
          "type": "address"
        },
        {
          "internalType": "uint8",
          "name": "sigV",
          "type": "uint8"
        },
        {
          "internalType": "bytes32",
          "name": "sigR",
          "type": "bytes32"
        },
        {
          "internalType": "bytes32",
          "name": "sigS",
          "type": "bytes32"
        },
        {
          "internalType": "bytes32",
          "name": "name",
          "type": "bytes32"
        },
        {
          "internalType": "bytes",
          "name": "value",
          "type": "bytes"
        },
        {
          "internalType": "uint256",
          "name": "validity",
          "type": "uint256"
        }
      ],
      "name": "setAttributeSigned",
      "outputs": [],
      "stateMutability": "nonpayable",
      "type": "function"
    },
    {
      "inputs": [
        {
          "internalType": "address",
          "name": "identity",
          "type": "address"
        },
        {
          "internalType": "bytes32",
          "name": "delegateType",
          "type": "bytes32"
        },
        {
          "internalType": "address",
          "name": "delegate",
          "type": "address"
        }
      ],
      "name": "validDelegate",
      "outputs": [
        {
          "internalType": "bool",
          "name": "",
          "type": "bool"
        }
      ],
      "stateMutability": "view",
      "type": "function"
    }
  ],
  "bytecode": "0x608060405234801561001057600080fd5b506111ce806100206000396000f3fe608060405234801561001057600080fd5b50600436106100ff5760003560e01c806380b29f7c11610097578063a7068d6611610066578063a7068d66146102b5578063e476af5c146102c8578063f00d4b5d146102db578063f96d0f9f146102ee57600080fd5b806380b29f7c146102695780638733d4e81461027c578063930726841461028f5780639c2c1b2b146102a257600080fd5b8063240cf1fa116100d3578063240cf1fa146101b1578063622b2a3c146101c457806370ae92d2146102365780637ad4b0a41461025657600080fd5b8062c023da14610104578063022914a7146101195780630d44625b1461015f578063123b5e981461019e575b600080fd5b610117610112366004610d23565b61030e565b005b610142610127366004610c4e565b6000602081905290815260409020546001600160a01b031681565b6040516001600160a01b0390911681526020015b60405180910390f35b61019061016d366004610ca3565b600160209081526000938452604080852082529284528284209052825290205481565b604051908152602001610156565b6101176101ac366004610f81565b610321565b6101176101bf366004610ddf565b6103b1565b6102266101d2366004610ca3565b6001600160a01b039283166000908152600160209081526040808320815180840196909652815180870384018152958201825285519583019590952083529381528382209290941681529252902054421090565b6040519015158152602001610156565b610190610244366004610c4e565b60036020526000908152604090205481565b610117610264366004610d7d565b61047c565b610117610277366004610ca3565b610491565b61014261028a366004610c4e565b6104a2565b61011761029d366004610e36565b6104d2565b6101176102b0366004610e95565b6105a9565b6101176102c3366004610cdf565b61068a565b6101176102d6366004610eff565b610697565b6101176102e9366004610c70565b610719565b6101906102fc366004610c4e565b60026020526000908152604090205481565b61031b8433858585610728565b50505050565b6000601960f81b81306003826103368e6104a2565b6001600160a01b03166001600160a01b03168152602001908152602001600020548c89898989604051602001610374999897969594939291906110ab565b6040516020818303038152906040528051906020012090506103a68961039d8b8b8b8b876107cb565b87878787610887565b505050505050505050565b6000601960f81b81306003826103c68b6104a2565b6001600160a01b0316815260208082019290925260409081016000205481516001600160f81b0319968716818501529490951660218501526001600160601b0319606093841b8116602286015260368501959095528a831b851660568501526a31b430b733b2a7bbb732b960a91b606a8501529186901b90931660758301528051606981840301815260899092019052805191012090506104748661046e81888888876107cb565b8461093f565b505050505050565b61048a853386868686610887565b5050505050565b61049d833384846109f4565b505050565b6001600160a01b0380821660009081526020819052604081205490911680156104cb5792915050565b5090919050565b6000601960f81b81306003826104e78c6104a2565b6001600160a01b0316815260208082019290925260409081016000205481516001600160f81b0319968716818501529490951660218501526001600160601b0319606093841b8116602286015260368501959095528b831b851660568501526d7265766f6b6544656c656761746560901b606a850152607884018890529186901b90931660988301528051608c81840301815260ac9092019052805191012090506105a08761059981898989876107cb565b85856109f4565b50505050505050565b6000601960f81b81306003826105be8d6104a2565b6001600160a01b0316815260208082019290925260409081016000205490516001600160f81b031995861692810192909252929093166021840152606090811b6001600160601b0319908116602285015260368401929092528a811b821660568401526a61646444656c656761746560a81b606a8401526075830187905285901b16609582015260a9810183905260c901604051602081830303815290604052805190602001209050610680886106788a8a8a8a876107cb565b868686610aec565b5050505050505050565b61031b8433858585610aec565b6000601960f81b81306003826106ac8d6104a2565b6001600160a01b03166001600160a01b03168152602001908152602001600020548b8888886040516020016106e8989796959493929190611033565b604051602081830303815290604052805190602001209050610680886107118a8a8a8a876107cb565b868686610728565b61072482338361093f565b5050565b8484610733826104a2565b6001600160a01b0316816001600160a01b03161461075057600080fd5b6001600160a01b0387166000818152600260205260408082205490517f18ab6b2ae3d64306c00ce663125f2bd680e441a098de1635bd7ad8b0d44965e49261079f928a928a928a929091611121565b60405180910390a25050506001600160a01b039093166000908152600260205260409020439055505050565b6040805160008082526020820180845284905260ff8716928201929092526060810185905260808101849052819060019060a0016020604051602081039080840390855afa158015610821573d6000803e3d6000fd5b505050602060405103519050610836876104a2565b6001600160a01b0316816001600160a01b03161461085357600080fd5b6001600160a01b038116600090815260036020526040812080549161087783611167565b9091555090979650505050505050565b8585610892826104a2565b6001600160a01b0316816001600160a01b0316146108af57600080fd5b6001600160a01b0388167f18ab6b2ae3d64306c00ce663125f2bd680e441a098de1635bd7ad8b0d44965e48787876108e7884261114f565b6001600160a01b038e1660009081526002602052604090819020549051610912959493929190611121565b60405180910390a25050506001600160a01b03909416600090815260026020526040902043905550505050565b828261094a826104a2565b6001600160a01b0316816001600160a01b03161461096757600080fd5b6001600160a01b0385811660008181526020818152604080832080546001600160a01b031916958916958617905560028252918290205482519485529084015290917f38a5a6e68f30ed1ab45860a4afb34bcb2fc00f22ca462d249b8a8d40cda6f7a3910160405180910390a2505050506001600160a01b03166000908152600260205260409020439055565b83836109ff826104a2565b6001600160a01b0316816001600160a01b031614610a1c57600080fd5b6001600160a01b03868116600081815260016020908152604080832081518084018b90528251808203850181528184018085528151918601919091208652918452828520968a16808652968452828520429081905586865260029094529382902054908a90526060840195909552608083019190915260a0820193909352915190917f5a5084339536bcab65f20799fcc58724588145ca054bd2be626174b27ba156f7919081900360c00190a25050506001600160a01b0390921660009081526002602052604090204390555050565b8484610af7826104a2565b6001600160a01b0316816001600160a01b031614610b1457600080fd5b610b1e834361114f565b6001600160a01b03888116600081815260016020908152604080832081518084018d9052825180820385018152908301835280519084012084528252808320948a16835293905291909120919091557f5a5084339536bcab65f20799fcc58724588145ca054bd2be626174b27ba156f78686610b9a874261114f565b6001600160a01b038c81166000908152600260209081526040918290205482519687529490921691850191909152830152606082015260800161079f565b80356001600160a01b0381168114610bef57600080fd5b919050565b60008083601f840112610c0657600080fd5b50813567ffffffffffffffff811115610c1e57600080fd5b602083019150836020828501011115610c3657600080fd5b9250929050565b803560ff81168114610bef57600080fd5b600060208284031215610c6057600080fd5b610c6982610bd8565b9392505050565b60008060408385031215610c8357600080fd5b610c8c83610bd8565b9150610c9a60208401610bd8565b90509250929050565b600080600060608486031215610cb857600080fd5b610cc184610bd8565b925060208401359150610cd660408501610bd8565b90509250925092565b60008060008060808587031215610cf557600080fd5b610cfe85610bd8565b935060208501359250610d1360408601610bd8565b9396929550929360600135925050565b60008060008060608587031215610d3957600080fd5b610d4285610bd8565b935060208501359250604085013567ffffffffffffffff811115610d6557600080fd5b610d7187828801610bf4565b95989497509550505050565b600080600080600060808688031215610d9557600080fd5b610d9e86610bd8565b945060208601359350604086013567ffffffffffffffff811115610dc157600080fd5b610dcd88828901610bf4565b96999598509660600135949350505050565b600080600080600060a08688031215610df757600080fd5b610e0086610bd8565b9450610e0e60208701610c3d565b93506040860135925060608601359150610e2a60808701610bd8565b90509295509295909350565b60008060008060008060c08789031215610e4f57600080fd5b610e5887610bd8565b9550610e6660208801610c3d565b9450604087013593506060870135925060808701359150610e8960a08801610bd8565b90509295509295509295565b600080600080600080600060e0888a031215610eb057600080fd5b610eb988610bd8565b9650610ec760208901610c3d565b9550604088013594506060880135935060808801359250610eea60a08901610bd8565b915060c0880135905092959891949750929550565b600080600080600080600060c0888a031215610f1a57600080fd5b610f2388610bd8565b9650610f3160208901610c3d565b955060408801359450606088013593506080880135925060a088013567ffffffffffffffff811115610f6257600080fd5b610f6e8a828b01610bf4565b989b979a50959850939692959293505050565b60008060008060008060008060e0898b031215610f9d57600080fd5b610fa689610bd8565b9750610fb460208a01610c3d565b965060408901359550606089013594506080890135935060a089013567ffffffffffffffff811115610fe557600080fd5b610ff18b828c01610bf4565b999c989b50969995989497949560c00135949350505050565b81835281816020850137506000828201602090810191909152601f909101601f19169091010190565b6001600160f81b03198981168252881660018201526001600160601b0319606088811b821660028401526016830188905286901b1660368201526e7265766f6b6541747472696275746560881b604a820152605981018490526000828460798401375060009101607901908152979650505050505050565b6001600160f81b03198a81168252891660018201526001600160601b0319606089811b821660028401526016830189905287901b1660368201526b73657441747472696275746560a01b604a82015260568101859052600083856076840137506076920191820152609601979650505050505050565b85815260806020820152600061113b60808301868861100a565b604083019490945250606001529392505050565b6000821982111561116257611162611182565b500190565b600060001982141561117b5761117b611182565b5060010190565b634e487b7160e01b600052601160045260246000fdfea26469706673582212207f140f5909f0992425b368bb743c53420de2f0b773448862d86e3de616dcd23764736f6c63430008070033",
  "linkReferences": {},
  "deployedLinkReferences": {}
}