{
  "_format": "hh-sol-artifact-1",
  "contractName": "AttestationRegistry",
  "sourceName": "contracts/AttestationRegistry.sol",
  "abi": [
    {
      "inputs": [
        {
          "internalType": "address",
          "name": "",
          "type": "address"
        },
        {
          "internalType": "bytes32",
          "name": "",
          "type": "bytes32"
        },
        {
          "internalType": "uint256",
          "name": "",
          "type": "uint256"
        }
      ],
      "name": "credentialsOfAddress",
      "outputs": [
        {
          "internalType": "bytes32",
          "name": "",
          "type": "bytes32"
        }
      ],
      "stateMutability": "view",
      "type": "function"
    },
    {
      "inputs": [
        {
          "internalType": "address",
          "name": "holder",
          "type": "address"
        },
        {
          "internalType": "bytes32",
          "name": "topic",
          "type": "bytes32"
        }
      ],
      "name": "getAttestation",
      "outputs": [
        {
          "internalType": "bytes32[]",
          "name": "",
          "type": "bytes32[]"
        }
      ],
      "stateMutability": "view",
      "type": "function"
    },
    {
      "inputs": [
        {
          "internalType": "address",
          "name": "holder",
          "type": "address"
        },
        {
          "internalType": "bytes32",
          "name": "topic",
          "type": "bytes32"
        },
        {
          "internalType": "bytes32",
          "name": "verfiableCredentials",
          "type": "bytes32"
        }
      ],
      "name": "setAttestation",
      "outputs": [],
      "stateMutability": "nonpayable",
      "type": "function"
    }
  ],
  "bytecode": "0x608060405234801561001057600080fd5b50610275806100206000396000f3fe608060405234801561001057600080fd5b50600436106100415760003560e01c80632265aaf9146100465780632bac2eb71461006c578063bb0ff478146100b1575b600080fd5b6100596100543660046101c8565b6100d1565b6040519081526020015b60405180910390f35b6100af61007a3660046101c8565b6001600160a01b0390921660009081526020818152604080832093835292815291812080546001810182559082529190200155565b005b6100c46100bf36600461019e565b61010f565b60405161006391906101fb565b600060205282600052604060002060205281600052604060002081815481106100f957600080fd5b9060005260206000200160009250925050505481565b6001600160a01b03821660009081526020818152604080832084845282529182902080548351818402810184019094528084526060939283018282801561017557602002820191906000526020600020905b815481526020019060010190808311610161575b5050505050905092915050565b80356001600160a01b038116811461019957600080fd5b919050565b600080604083850312156101b157600080fd5b6101ba83610182565b946020939093013593505050565b6000806000606084860312156101dd57600080fd5b6101e684610182565b95602085013595506040909401359392505050565b6020808252825182820181905260009190848201906040850190845b8181101561023357835183529284019291840191600101610217565b5090969550505050505056fea2646970667358221220dd0e395e0a20b8a89346ebe5ef005cf1de258ad3ece85789ab21312a83e6192e64736f6c63430008070033",
  "linkReferences": {},
  "deployedLinkReferences": {}
}