{
  "_format": "hh-sol-artifact-1",
  "contractName": "PublicResolver",
  "sourceName": "@ensdomains/ens-contracts/contracts/resolvers/PublicResolver.sol",
  "abi": [
    {
      "inputs": [
        {
          "internalType": "contract ENS",
          "name": "_ens",
          "type": "address"
        },
        {
          "internalType": "contract INameWrapper",
          "name": "wrapperAddress",
          "type": "address"
        }
      ],
      "stateMutability": "nonpayable",
      "type": "constructor"
    },
    {
      "anonymous": false,
      "inputs": [
        {
          "indexed": true,
          "internalType": "bytes32",
          "name": "node",
          "type": "bytes32"
        },
        {
          "indexed": true,
          "internalType": "uint256",
          "name": "contentType",
          "type": "uint256"
        }
      ],
      "name": "ABIChanged",
      "type": "event"
    },
    {
      "anonymous": false,
      "inputs": [
        {
          "indexed": true,
          "internalType": "bytes32",
          "name": "node",
          "type": "bytes32"
        },
        {
          "indexed": false,
          "internalType": "address",
          "name": "a",
          "type": "address"
        }
      ],
      "name": "AddrChanged",
      "type": "event"
    },
    {
      "anonymous": false,
      "inputs": [
        {
          "indexed": true,
          "internalType": "bytes32",
          "name": "node",
          "type": "bytes32"
        },
        {
          "indexed": false,
          "internalType": "uint256",
          "name": "coinType",
          "type": "uint256"
        },
        {
          "indexed": false,
          "internalType": "bytes",
          "name": "newAddress",
          "type": "bytes"
        }
      ],
      "name": "AddressChanged",
      "type": "event"
    },
    {
      "anonymous": false,
      "inputs": [
        {
          "indexed": true,
          "internalType": "address",
          "name": "owner",
          "type": "address"
        },
        {
          "indexed": true,
          "internalType": "address",
          "name": "operator",
          "type": "address"
        },
        {
          "indexed": false,
          "internalType": "bool",
          "name": "approved",
          "type": "bool"
        }
      ],
      "name": "ApprovalForAll",
      "type": "event"
    },
    {
      "anonymous": false,
      "inputs": [
        {
          "indexed": true,
          "internalType": "bytes32",
          "name": "node",
          "type": "bytes32"
        },
        {
          "indexed": false,
          "internalType": "bytes",
          "name": "hash",
          "type": "bytes"
        }
      ],
      "name": "ContenthashChanged",
      "type": "event"
    },
    {
      "anonymous": false,
      "inputs": [
        {
          "indexed": true,
          "internalType": "bytes32",
          "name": "node",
          "type": "bytes32"
        },
        {
          "indexed": false,
          "internalType": "bytes",
          "name": "name",
          "type": "bytes"
        },
        {
          "indexed": false,
          "internalType": "uint16",
          "name": "resource",
          "type": "uint16"
        },
        {
          "indexed": false,
          "internalType": "bytes",
          "name": "record",
          "type": "bytes"
        }
      ],
      "name": "DNSRecordChanged",
      "type": "event"
    },
    {
      "anonymous": false,
      "inputs": [
        {
          "indexed": true,
          "internalType": "bytes32",
          "name": "node",
          "type": "bytes32"
        },
        {
          "indexed": false,
          "internalType": "bytes",
          "name": "name",
          "type": "bytes"
        },
        {
          "indexed": false,
          "internalType": "uint16",
          "name": "resource",
          "type": "uint16"
        }
      ],
      "name": "DNSRecordDeleted",
      "type": "event"
    },
    {
      "anonymous": false,
      "inputs": [
        {
          "indexed": true,
          "internalType": "bytes32",
          "name": "node",
          "type": "bytes32"
        }
      ],
      "name": "DNSZoneCleared",
      "type": "event"
    },
    {
      "anonymous": false,
      "inputs": [
        {
          "indexed": true,
          "internalType": "bytes32",
          "name": "node",
          "type": "bytes32"
        },
        {
          "indexed": false,
          "internalType": "bytes",
          "name": "lastzonehash",
          "type": "bytes"
        },
        {
          "indexed": false,
          "internalType": "bytes",
          "name": "zonehash",
          "type": "bytes"
        }
      ],
      "name": "DNSZonehashChanged",
      "type": "event"
    },
    {
      "anonymous": false,
      "inputs": [
        {
          "indexed": true,
          "internalType": "bytes32",
          "name": "node",
          "type": "bytes32"
        },
        {
          "indexed": true,
          "internalType": "bytes4",
          "name": "interfaceID",
          "type": "bytes4"
        },
        {
          "indexed": false,
          "internalType": "address",
          "name": "implementer",
          "type": "address"
        }
      ],
      "name": "InterfaceChanged",
      "type": "event"
    },
    {
      "anonymous": false,
      "inputs": [
        {
          "indexed": true,
          "internalType": "bytes32",
          "name": "node",
          "type": "bytes32"
        },
        {
          "indexed": false,
          "internalType": "string",
          "name": "name",
          "type": "string"
        }
      ],
      "name": "NameChanged",
      "type": "event"
    },
    {
      "anonymous": false,
      "inputs": [
        {
          "indexed": true,
          "internalType": "bytes32",
          "name": "node",
          "type": "bytes32"
        },
        {
          "indexed": false,
          "internalType": "bytes32",
          "name": "x",
          "type": "bytes32"
        },
        {
          "indexed": false,
          "internalType": "bytes32",
          "name": "y",
          "type": "bytes32"
        }
      ],
      "name": "PubkeyChanged",
      "type": "event"
    },
    {
      "anonymous": false,
      "inputs": [
        {
          "indexed": true,
          "internalType": "bytes32",
          "name": "node",
          "type": "bytes32"
        },
        {
          "indexed": true,
          "internalType": "string",
          "name": "indexedKey",
          "type": "string"
        },
        {
          "indexed": false,
          "internalType": "string",
          "name": "key",
          "type": "string"
        }
      ],
      "name": "TextChanged",
      "type": "event"
    },
    {
      "inputs": [
        {
          "internalType": "bytes32",
          "name": "node",
          "type": "bytes32"
        },
        {
          "internalType": "uint256",
          "name": "contentTypes",
          "type": "uint256"
        }
      ],
      "name": "ABI",
      "outputs": [
        {
          "internalType": "uint256",
          "name": "",
          "type": "uint256"
        },
        {
          "internalType": "bytes",
          "name": "",
          "type": "bytes"
        }
      ],
      "stateMutability": "view",
      "type": "function"
    },
    {
      "inputs": [
        {
          "internalType": "bytes32",
          "name": "node",
          "type": "bytes32"
        }
      ],
      "name": "addr",
      "outputs": [
        {
          "internalType": "address payable",
          "name": "",
          "type": "address"
        }
      ],
      "stateMutability": "view",
      "type": "function"
    },
    {
      "inputs": [
        {
          "internalType": "bytes32",
          "name": "node",
          "type": "bytes32"
        },
        {
          "internalType": "uint256",
          "name": "coinType",
          "type": "uint256"
        }
      ],
      "name": "addr",
      "outputs": [
        {
          "internalType": "bytes",
          "name": "",
          "type": "bytes"
        }
      ],
      "stateMutability": "view",
      "type": "function"
    },
    {
      "inputs": [
        {
          "internalType": "bytes32",
          "name": "node",
          "type": "bytes32"
        }
      ],
      "name": "clearDNSZone",
      "outputs": [],
      "stateMutability": "nonpayable",
      "type": "function"
    },
    {
      "inputs": [
        {
          "internalType": "bytes32",
          "name": "node",
          "type": "bytes32"
        }
      ],
      "name": "contenthash",
      "outputs": [
        {
          "internalType": "bytes",
          "name": "",
          "type": "bytes"
        }
      ],
      "stateMutability": "view",
      "type": "function"
    },
    {
      "inputs": [
        {
          "internalType": "bytes32",
          "name": "node",
          "type": "bytes32"
        },
        {
          "internalType": "bytes32",
          "name": "name",
          "type": "bytes32"
        },
        {
          "internalType": "uint16",
          "name": "resource",
          "type": "uint16"
        }
      ],
      "name": "dnsRecord",
      "outputs": [
        {
          "internalType": "bytes",
          "name": "",
          "type": "bytes"
        }
      ],
      "stateMutability": "view",
      "type": "function"
    },
    {
      "inputs": [
        {
          "internalType": "bytes32",
          "name": "node",
          "type": "bytes32"
        },
        {
          "internalType": "bytes32",
          "name": "name",
          "type": "bytes32"
        }
      ],
      "name": "hasDNSRecords",
      "outputs": [
        {
          "internalType": "bool",
          "name": "",
          "type": "bool"
        }
      ],
      "stateMutability": "view",
      "type": "function"
    },
    {
      "inputs": [
        {
          "internalType": "bytes32",
          "name": "node",
          "type": "bytes32"
        },
        {
          "internalType": "bytes4",
          "name": "interfaceID",
          "type": "bytes4"
        }
      ],
      "name": "interfaceImplementer",
      "outputs": [
        {
          "internalType": "address",
          "name": "",
          "type": "address"
        }
      ],
      "stateMutability": "view",
      "type": "function"
    },
    {
      "inputs": [
        {
          "internalType": "address",
          "name": "account",
          "type": "address"
        },
        {
          "internalType": "address",
          "name": "operator",
          "type": "address"
        }
      ],
      "name": "isApprovedForAll",
      "outputs": [
        {
          "internalType": "bool",
          "name": "",
          "type": "bool"
        }
      ],
      "stateMutability": "view",
      "type": "function"
    },
    {
      "inputs": [
        {
          "internalType": "bytes[]",
          "name": "data",
          "type": "bytes[]"
        }
      ],
      "name": "multicall",
      "outputs": [
        {
          "internalType": "bytes[]",
          "name": "results",
          "type": "bytes[]"
        }
      ],
      "stateMutability": "nonpayable",
      "type": "function"
    },
    {
      "inputs": [
        {
          "internalType": "bytes32",
          "name": "node",
          "type": "bytes32"
        }
      ],
      "name": "name",
      "outputs": [
        {
          "internalType": "string",
          "name": "",
          "type": "string"
        }
      ],
      "stateMutability": "view",
      "type": "function"
    },
    {
      "inputs": [
        {
          "internalType": "bytes32",
          "name": "node",
          "type": "bytes32"
        }
      ],
      "name": "pubkey",
      "outputs": [
        {
          "internalType": "bytes32",
          "name": "x",
          "type": "bytes32"
        },
        {
          "internalType": "bytes32",
          "name": "y",
          "type": "bytes32"
        }
      ],
      "stateMutability": "view",
      "type": "function"
    },
    {
      "inputs": [
        {
          "internalType": "bytes32",
          "name": "node",
          "type": "bytes32"
        },
        {
          "internalType": "uint256",
          "name": "contentType",
          "type": "uint256"
        },
        {
          "internalType": "bytes",
          "name": "data",
          "type": "bytes"
        }
      ],
      "name": "setABI",
      "outputs": [],
      "stateMutability": "nonpayable",
      "type": "function"
    },
    {
      "inputs": [
        {
          "internalType": "bytes32",
          "name": "node",
          "type": "bytes32"
        },
        {
          "internalType": "uint256",
          "name": "coinType",
          "type": "uint256"
        },
        {
          "internalType": "bytes",
          "name": "a",
          "type": "bytes"
        }
      ],
      "name": "setAddr",
      "outputs": [],
      "stateMutability": "nonpayable",
      "type": "function"
    },
    {
      "inputs": [
        {
          "internalType": "bytes32",
          "name": "node",
          "type": "bytes32"
        },
        {
          "internalType": "address",
          "name": "a",
          "type": "address"
        }
      ],
      "name": "setAddr",
      "outputs": [],
      "stateMutability": "nonpayable",
      "type": "function"
    },
    {
      "inputs": [
        {
          "internalType": "address",
          "name": "operator",
          "type": "address"
        },
        {
          "internalType": "bool",
          "name": "approved",
          "type": "bool"
        }
      ],
      "name": "setApprovalForAll",
      "outputs": [],
      "stateMutability": "nonpayable",
      "type": "function"
    },
    {
      "inputs": [
        {
          "internalType": "bytes32",
          "name": "node",
          "type": "bytes32"
        },
        {
          "internalType": "bytes",
          "name": "hash",
          "type": "bytes"
        }
      ],
      "name": "setContenthash",
      "outputs": [],
      "stateMutability": "nonpayable",
      "type": "function"
    },
    {
      "inputs": [
        {
          "internalType": "bytes32",
          "name": "node",
          "type": "bytes32"
        },
        {
          "internalType": "bytes",
          "name": "data",
          "type": "bytes"
        }
      ],
      "name": "setDNSRecords",
      "outputs": [],
      "stateMutability": "nonpayable",
      "type": "function"
    },
    {
      "inputs": [
        {
          "internalType": "bytes32",
          "name": "node",
          "type": "bytes32"
        },
        {
          "internalType": "bytes4",
          "name": "interfaceID",
          "type": "bytes4"
        },
        {
          "internalType": "address",
          "name": "implementer",
          "type": "address"
        }
      ],
      "name": "setInterface",
      "outputs": [],
      "stateMutability": "nonpayable",
      "type": "function"
    },
    {
      "inputs": [
        {
          "internalType": "bytes32",
          "name": "node",
          "type": "bytes32"
        },
        {
          "internalType": "string",
          "name": "name",
          "type": "string"
        }
      ],
      "name": "setName",
      "outputs": [],
      "stateMutability": "nonpayable",
      "type": "function"
    },
    {
      "inputs": [
        {
          "internalType": "bytes32",
          "name": "node",
          "type": "bytes32"
        },
        {
          "internalType": "bytes32",
          "name": "x",
          "type": "bytes32"
        },
        {
          "internalType": "bytes32",
          "name": "y",
          "type": "bytes32"
        }
      ],
      "name": "setPubkey",
      "outputs": [],
      "stateMutability": "nonpayable",
      "type": "function"
    },
    {
      "inputs": [
        {
          "internalType": "bytes32",
          "name": "node",
          "type": "bytes32"
        },
        {
          "internalType": "string",
          "name": "key",
          "type": "string"
        },
        {
          "internalType": "string",
          "name": "value",
          "type": "string"
        }
      ],
      "name": "setText",
      "outputs": [],
      "stateMutability": "nonpayable",
      "type": "function"
    },
    {
      "inputs": [
        {
          "internalType": "bytes32",
          "name": "node",
          "type": "bytes32"
        },
        {
          "internalType": "bytes",
          "name": "hash",
          "type": "bytes"
        }
      ],
      "name": "setZonehash",
      "outputs": [],
      "stateMutability": "nonpayable",
      "type": "function"
    },
    {
      "inputs": [
        {
          "internalType": "bytes4",
          "name": "interfaceID",
          "type": "bytes4"
        }
      ],
      "name": "supportsInterface",
      "outputs": [
        {
          "internalType": "bool",
          "name": "",
          "type": "bool"
        }
      ],
      "stateMutability": "pure",
      "type": "function"
    },
    {
      "inputs": [
        {
          "internalType": "bytes32",
          "name": "node",
          "type": "bytes32"
        },
        {
          "internalType": "string",
          "name": "key",
          "type": "string"
        }
      ],
      "name": "text",
      "outputs": [
        {
          "internalType": "string",
          "name": "",
          "type": "string"
        }
      ],
      "stateMutability": "view",
      "type": "function"
    },
    {
      "inputs": [
        {
          "internalType": "bytes32",
          "name": "node",
          "type": "bytes32"
        }
      ],
      "name": "zonehash",
      "outputs": [
        {
          "internalType": "bytes",
          "name": "",
          "type": "bytes"
        }
      ],
      "stateMutability": "view",
      "type": "function"
    }
  ],
  "bytecode": "0x60806040523480156200001157600080fd5b50604051620026aa380380620026aa833981016040819052620000349162000066565b600b80546001600160a01b039384166001600160a01b031991821617909155600c8054929093169116179055620000be565b600080604083850312156200007a57600080fd5b82516200008781620000a5565b60208401519092506200009a81620000a5565b809150509250929050565b6001600160a01b0381168114620000bb57600080fd5b50565b6125dc80620000ce6000396000f3fe608060405234801561001057600080fd5b506004361061018e5760003560e01c806377372213116100de578063bc1c58d111610097578063d5fa2b0011610071578063d5fa2b00146103e3578063e59d895d146103f6578063e985e9c514610409578063f1cb7e061461044557600080fd5b8063bc1c58d114610380578063c869023314610393578063ce3decdc146103d057600080fd5b806377372213146103015780638b95dd7114610314578063a22cb46514610327578063a8fa56821461033a578063ac9650d81461034d578063ad5780af1461036d57600080fd5b8063304e6ade1161014b57806359d1d43c1161012557806359d1d43c146102a85780635c98042b146102c8578063623195b0146102db578063691f3431146102ee57600080fd5b8063304e6ade146102425780633b3b57de146102555780634cbf6ba41461026857600080fd5b806301ffc9a7146101935780630af179d7146101bb57806310f13a8c146101d0578063124a319c146101e35780632203ab561461020e57806329cd62ea1461022f575b600080fd5b6101a66101a136600461223a565b610458565b60405190151581526020015b60405180910390f35b6101ce6101c936600461205d565b610469565b005b6101ce6101de3660046120a9565b610654565b6101f66101f1366004611ffc565b610701565b6040516001600160a01b0390911681526020016101b2565b61022161021c366004611f6e565b610939565b6040516101b29291906123e4565b6101ce61023d366004611f90565b610a54565b6101ce61025036600461205d565b610ad4565b6101f6610263366004611f30565b610b33565b6101a6610276366004611f6e565b600091825260066020908152604080842060048352818520548552825280842092845291905290205461ffff16151590565b6102bb6102b636600461205d565b610b66565b6040516101b2919061234c565b6102bb6102d6366004611f30565b610c2b565b6101ce6102e9366004612123565b610ccd565b6102bb6102fc366004611f30565b610d4e565b6101ce61030f36600461205d565b610d6b565b6101ce610322366004612176565b610dca565b6101ce610335366004611e88565b610e95565b6102bb610348366004611fbc565b610f70565b61036061035b366004611ebb565b610fb3565b6040516101b291906122d6565b6101ce61037b366004611f30565b6110ce565b6102bb61038e366004611f30565b61112f565b6103bb6103a1366004611f30565b600090815260096020526040902080546001909101549091565b604080519283526020830191909152016101b2565b6101ce6103de36600461205d565b61114c565b6101ce6103f1366004611f49565b611258565b6101ce610404366004612028565b61127f565b6101a6610417366004611e4f565b6001600160a01b039182166000908152600d6020908152604080832093909416825291909152205460ff1690565b6102bb610453366004611f6e565b61130c565b6000610463826113ba565b92915050565b82610473816113df565b61047c57600080fd5b6000806060806000806104c960008a8a8080601f01602080910402602001604051908101604052809392919081815260200183838082843760009201919091525092939250506115369050565b90505b805151602082015110156105ef5761ffff861661052e57806040015195506104f381611597565b93508360405160200161050691906122ba565b604051602081830303815290604052805190602001209150610527816115b8565b92506105e1565b600061053982611597565b9050816040015161ffff168761ffff1614158061055d575061055b85826115d4565b155b156105df576105b88b86898d8d8080601f016020809104026020016040519081016040528093929190818152602001838380828437600092019190915250505060208801518c91506105b090829061245c565b8a51156115f2565b8160400151965081602001519550809450848051906020012092506105dc826115b8565b93505b505b6105ea81611834565b6104cc565b50825115610649576106498984878b8b8080601f0160208091040260200160405190810160405280939291908181526020018383808284376000920191909152508b925061064191508290508e61245c565b8851156115f2565b505050505050505050565b8461065e816113df565b61066757600080fd5b8282600a6000898152602001908152602001600020878760405161068c9291906122aa565b9081526040519081900360200190206106a6929091611c89565b5084846040516106b79291906122aa565b6040518091039020867fd8c9334b1a9c2f9da342a0a2b32629c1a229b6445dad78947f674b44444a755087876040516106f1929190612338565b60405180910390a3505050505050565b60008281526007602090815260408083206001600160e01b0319851684529091528120546001600160a01b0316801561073b579050610463565b600061074685610b33565b90506001600160a01b03811661076157600092505050610463565b6040516301ffc9a760e01b602482015260009081906001600160a01b0384169060440160408051601f198184030181529181526020820180516001600160e01b03166301ffc9a760e01b179052516107b991906122ba565b600060405180830381855afa9150503d80600081146107f4576040519150601f19603f3d011682016040523d82523d6000602084013e6107f9565b606091505b509150915081158061080c575060208151105b80610836575080601f8151811061082557610825612565565b01602001516001600160f81b031916155b15610848576000945050505050610463565b6040516001600160e01b0319871660248201526001600160a01b0384169060440160408051601f198184030181529181526020820180516001600160e01b03166301ffc9a760e01b1790525161089e91906122ba565b600060405180830381855afa9150503d80600081146108d9576040519150601f19603f3d011682016040523d82523d6000602084013e6108de565b606091505b5090925090508115806108f2575060208151105b8061091c575080601f8151811061090b5761090b612565565b01602001516001600160f81b031916155b1561092e576000945050505050610463565b509095945050505050565b600082815260208190526040812060609060015b848111610a34578085161580159061097d575060008181526020839052604081208054610979906124c1565b9050115b15610a2c57808260008381526020019081526020016000208080546109a1906124c1565b80601f01602080910402602001604051908101604052809291908181526020018280546109cd906124c1565b8015610a1a5780601f106109ef57610100808354040283529160200191610a1a565b820191906000526020600020905b8154815290600101906020018083116109fd57829003601f168201915b50505050509050935093505050610a4d565b60011b61094d565b5060006040518060200160405280600081525092509250505b9250929050565b82610a5e816113df565b610a6757600080fd5b60408051808201825284815260208082018581526000888152600983528490209251835551600190920191909155815185815290810184905285917f1d6f5e03d3f63eb58751986629a5439baee5079ff04f345becb66e23eb154e4691015b60405180910390a250505050565b82610ade816113df565b610ae757600080fd5b6000848152600260205260409020610b00908484611c89565b50837fe379c1624ed7e714cc0937528a32359d69d5281337765313dba4e081b72d75788484604051610ac6929190612338565b600080610b4183603c61130c565b9050805160001415610b565750600092915050565b610b5f8161191c565b9392505050565b6060600a60008581526020019081526020016000208383604051610b8b9291906122aa565b90815260200160405180910390208054610ba4906124c1565b80601f0160208091040260200160405190810160405280929190818152602001828054610bd0906124c1565b8015610c1d5780601f10610bf257610100808354040283529160200191610c1d565b820191906000526020600020905b815481529060010190602001808311610c0057829003601f168201915b505050505090509392505050565b6000818152600360205260409020805460609190610c48906124c1565b80601f0160208091040260200160405190810160405280929190818152602001828054610c74906124c1565b8015610cc15780601f10610c9657610100808354040283529160200191610cc1565b820191906000526020600020905b815481529060010190602001808311610ca457829003601f168201915b50505050509050919050565b83610cd7816113df565b610ce057600080fd5b83610cec60018261245c565b1615610cf757600080fd5b6000858152602081815260408083208784529091529020610d19908484611c89565b50604051849086907faa121bbeef5f32f5961a2a28966e769023910fc9479059ee3495d4c1a696efe390600090a35050505050565b6000818152600860205260409020805460609190610c48906124c1565b82610d75816113df565b610d7e57600080fd5b6000848152600860205260409020610d97908484611c89565b50837fb7d29e911041e8d9b843369e890bcb72c9388692ba48b65ac54e7214c4c348f78484604051610ac6929190612338565b82610dd4816113df565b610ddd57600080fd5b837f65412581168e88a1e60c6459d7f44ae83ad0832e670826c05a4e2476b57af7528484604051610e0f9291906123e4565b60405180910390a2603c831415610e6757837f52d7d861f09ab3d26239d492e8968629f95e9e318cf0b73bfddc441522a15fd2610e4b8461191c565b6040516001600160a01b03909116815260200160405180910390a25b600084815260016020908152604080832086845282529091208351610e8e92850190611d0d565b5050505050565b336001600160a01b0383161415610f045760405162461bcd60e51b815260206004820152602960248201527f455243313135353a2073657474696e6720617070726f76616c20737461747573604482015268103337b91039b2b63360b91b606482015260840160405180910390fd5b336000818152600d602090815260408083206001600160a01b03871680855290835292819020805460ff191686151590811790915590519081529192917f17307eab39ab6107e8899845ad3d59bd9653f200f220920489ca2b5937696c31910160405180910390a35050565b6000838152600560209081526040808320600483528184205484528252808320858452825280832061ffff851684529091529020805460609190610ba4906124c1565b60608167ffffffffffffffff811115610fce57610fce61257b565b60405190808252806020026020018201604052801561100157816020015b6060815260200190600190039081610fec5790505b50905060005b828110156110c7576000803086868581811061102557611025612565565b905060200281019061103791906123fd565b6040516110459291906122aa565b600060405180830381855af49150503d8060008114611080576040519150601f19603f3d011682016040523d82523d6000602084013e611085565b606091505b50915091508161109457600080fd5b808484815181106110a7576110a7612565565b6020026020010181905250505080806110bf9061251e565b915050611007565b5092915050565b806110d8816113df565b6110e157600080fd5b60008281526004602052604081208054916110fb8361251e565b909155505060405182907fb757169b8492ca2f1c6619d9d76ce22803035c3b1d5f6930dffe7b127c1a198390600090a25050565b6000818152600260205260409020805460609190610c48906124c1565b82611156816113df565b61115f57600080fd5b60008481526003602052604081208054611178906124c1565b80601f01602080910402602001604051908101604052809291908181526020018280546111a4906124c1565b80156111f15780601f106111c6576101008083540402835291602001916111f1565b820191906000526020600020905b8154815290600101906020018083116111d457829003601f168201915b505050600088815260036020526040902092935061121492915086905085611c89565b50847f8f15ed4b723ef428f250961da8315675b507046737e19319fc1a4d81bfe87f858286866040516112499392919061235f565b60405180910390a25050505050565b81611262816113df565b61126b57600080fd5b61127a83603c6103228561193b565b505050565b82611289816113df565b61129257600080fd5b60008481526007602090815260408083206001600160e01b031987168085529083529281902080546001600160a01b0319166001600160a01b038716908117909155905190815286917f7c69f06bea0bdef565b709e93a147836b0063ba2dd89f02d0b7e8d931e6a6daa910160405180910390a350505050565b60008281526001602090815260408083208484529091529020805460609190611334906124c1565b80601f0160208091040260200160405190810160405280929190818152602001828054611360906124c1565b80156113ad5780601f10611382576101008083540402835291602001916113ad565b820191906000526020600020905b81548152906001019060200180831161139057829003601f168201915b5050505050905092915050565b60006001600160e01b03198216631674750f60e21b148061046357506104638261196b565b600b546040516302571be360e01b81526004810183905260009182916001600160a01b03909116906302571be39060240160206040518083038186803b15801561142857600080fd5b505afa15801561143c573d6000803e3d6000fd5b505050506040513d601f19601f820116820180604052508101906114609190611e32565b600c549091506001600160a01b03808316911614156114f857600c546040516331a9108f60e11b8152600481018590526001600160a01b0390911690636352211e9060240160206040518083038186803b1580156114bd57600080fd5b505afa1580156114d1573d6000803e3d6000fd5b505050506040513d601f19601f820116820180604052508101906114f59190611e32565b90505b6001600160a01b038116331480610b5f57506001600160a01b0381166000908152600d6020908152604080832033845290915290205460ff16610b5f565b6115846040518060e001604052806060815260200160008152602001600061ffff168152602001600061ffff168152602001600063ffffffff16815260200160008152602001600081525090565b82815260c0810182905261046381611834565b60208101518151606091610463916115af9082611990565b845191906119ef565b60a081015160c0820151606091610463916115af90829061245c565b600081518351148015610b5f5750610b5f8360008460008751611a66565b600087815260046020908152604082205488519189019190912090916116198787876119ef565b905083156117225760008a81526005602090815260408083208684528252808320858452825280832061ffff8c16845290915290208054611659906124c1565b1590506116ad5760008a815260066020908152604080832086845282528083208584529091528120805461ffff1691611691836124a3565b91906101000a81548161ffff021916908361ffff160217905550505b60008a81526005602090815260408083208684528252808320858452825280832061ffff8c16845290915281206116e391611d81565b897f03528ed0c2a3ebc993b12ce3c16bb382f9c7d88ef7d8a1bf290eaf35955a12078a8a60405161171592919061238f565b60405180910390a2611828565b60008a81526005602090815260408083208684528252808320858452825280832061ffff8c1684529091529020805461175a906124c1565b151590506117af5760008a815260066020908152604080832086845282528083208584529091528120805461ffff1691611793836124fc565b91906101000a81548161ffff021916908361ffff160217905550505b60008a81526005602090815260408083208684528252808320858452825280832061ffff8c168452825290912082516117ea92840190611d0d565b50897f52a608b3303a48862d07a73d82fa221318c0027fbbcfb1b2329bface3f19ff2b8a8a8460405161181f939291906123b5565b60405180910390a25b50505050505050505050565b60c0810151602082018190528151511161184b5750565b600061185f82600001518360200151611990565b826020015161186e9190612444565b825190915061187d9082611a89565b61ffff166040830152611891600282612444565b82519091506118a09082611a89565b61ffff1660608301526118b4600282612444565b82519091506118c39082611ab1565b63ffffffff1660808301526118d9600482612444565b82519091506000906118eb9083611a89565b61ffff1690506118fc600283612444565b60a08401819052915061190f8183612444565b60c0909301929092525050565b6000815160141461192c57600080fd5b5060200151600160601b900490565b604080516014808252818301909252606091602082018180368337505050600160601b9290920260208301525090565b60006001600160e01b0319821663c869023360e01b1480610463575061046382611adb565b6000815b835181106119a4576119a4612539565b60006119b08583611b00565b60ff1690506119c0816001612444565b6119ca9083612444565b9150806119d757506119dd565b50611994565b6119e7838261245c565b949350505050565b82516060906119fe8385612444565b1115611a0957600080fd5b60008267ffffffffffffffff811115611a2457611a2461257b565b6040519080825280601f01601f191660200182016040528015611a4e576020820181803683370190505b5090506020808201908686010161092e828287611b24565b6000611a73848484611b7a565b611a7e878785611b7a565b149695505050505050565b8151600090611a99836002612444565b1115611aa457600080fd5b50016002015161ffff1690565b8151600090611ac1836004612444565b1115611acc57600080fd5b50016004015163ffffffff1690565b60006001600160e01b0319821663691f343160e01b1480610463575061046382611b9e565b6000828281518110611b1457611b14612565565b016020015160f81c905092915050565b60208110611b5c5781518352611b3b602084612444565b9250611b48602083612444565b9150611b5560208261245c565b9050611b24565b905182516020929092036101000a6000190180199091169116179052565b8251600090611b898385612444565b1115611b9457600080fd5b5091016020012090565b60006001600160e01b031982166304928c6760e21b148061046357506104638260006001600160e01b0319821663547d2b4160e11b1480611bef57506001600160e01b03198216631711d8df60e21b145b8061046357506104638260006001600160e01b0319821663bc1c58d160e01b148061046357506104638260006001600160e01b03198216631d9dabef60e11b1480611c4a57506001600160e01b031982166378e5bf0360e11b145b8061046357506104638260006001600160e01b03198216631101d5ab60e11b148061046357506301ffc9a760e01b6001600160e01b0319831614610463565b828054611c95906124c1565b90600052602060002090601f016020900481019282611cb75760008555611cfd565b82601f10611cd05782800160ff19823516178555611cfd565b82800160010185558215611cfd579182015b82811115611cfd578235825591602001919060010190611ce2565b50611d09929150611dbe565b5090565b828054611d19906124c1565b90600052602060002090601f016020900481019282611d3b5760008555611cfd565b82601f10611d5457805160ff1916838001178555611cfd565b82800160010185558215611cfd579182015b82811115611cfd578251825591602001919060010190611d66565b508054611d8d906124c1565b6000825580601f10611d9d575050565b601f016020900490600052602060002090810190611dbb9190611dbe565b50565b5b80821115611d095760008155600101611dbf565b80356001600160e01b031981168114611deb57600080fd5b919050565b60008083601f840112611e0257600080fd5b50813567ffffffffffffffff811115611e1a57600080fd5b602083019150836020828501011115610a4d57600080fd5b600060208284031215611e4457600080fd5b8151610b5f81612591565b60008060408385031215611e6257600080fd5b8235611e6d81612591565b91506020830135611e7d81612591565b809150509250929050565b60008060408385031215611e9b57600080fd5b8235611ea681612591565b915060208301358015158114611e7d57600080fd5b60008060208385031215611ece57600080fd5b823567ffffffffffffffff80821115611ee657600080fd5b818501915085601f830112611efa57600080fd5b813581811115611f0957600080fd5b8660208260051b8501011115611f1e57600080fd5b60209290920196919550909350505050565b600060208284031215611f4257600080fd5b5035919050565b60008060408385031215611f5c57600080fd5b823591506020830135611e7d81612591565b60008060408385031215611f8157600080fd5b50508035926020909101359150565b600080600060608486031215611fa557600080fd5b505081359360208301359350604090920135919050565b600080600060608486031215611fd157600080fd5b8335925060208401359150604084013561ffff81168114611ff157600080fd5b809150509250925092565b6000806040838503121561200f57600080fd5b8235915061201f60208401611dd3565b90509250929050565b60008060006060848603121561203d57600080fd5b8335925061204d60208501611dd3565b91506040840135611ff181612591565b60008060006040848603121561207257600080fd5b83359250602084013567ffffffffffffffff81111561209057600080fd5b61209c86828701611df0565b9497909650939450505050565b6000806000806000606086880312156120c157600080fd5b85359450602086013567ffffffffffffffff808211156120e057600080fd5b6120ec89838a01611df0565b9096509450604088013591508082111561210557600080fd5b5061211288828901611df0565b969995985093965092949392505050565b6000806000806060858703121561213957600080fd5b8435935060208501359250604085013567ffffffffffffffff81111561215e57600080fd5b61216a87828801611df0565b95989497509550505050565b60008060006060848603121561218b57600080fd5b8335925060208401359150604084013567ffffffffffffffff808211156121b157600080fd5b818601915086601f8301126121c557600080fd5b8135818111156121d7576121d761257b565b604051601f8201601f19908116603f011681019083821181831017156121ff576121ff61257b565b8160405282815289602084870101111561221857600080fd5b8260208601602083013760006020848301015280955050505050509250925092565b60006020828403121561224c57600080fd5b610b5f82611dd3565b81835281816020850137506000828201602090810191909152601f909101601f19169091010190565b60008151808452612296816020860160208601612473565b601f01601f19169290920160200192915050565b8183823760009101908152919050565b600082516122cc818460208701612473565b9190910192915050565b6000602080830181845280855180835260408601915060408160051b870101925083870160005b8281101561232b57603f1988860301845261231985835161227e565b945092850192908501906001016122fd565b5092979650505050505050565b6020815260006119e7602083018486612255565b602081526000610b5f602083018461227e565b604081526000612372604083018661227e565b8281036020840152612385818587612255565b9695505050505050565b6040815260006123a2604083018561227e565b905061ffff831660208301529392505050565b6060815260006123c8606083018661227e565b61ffff851660208401528281036040840152612385818561227e565b8281526040602082015260006119e7604083018461227e565b6000808335601e1984360301811261241457600080fd5b83018035915067ffffffffffffffff82111561242f57600080fd5b602001915036819003821315610a4d57600080fd5b600082198211156124575761245761254f565b500190565b60008282101561246e5761246e61254f565b500390565b60005b8381101561248e578181015183820152602001612476565b8381111561249d576000848401525b50505050565b600061ffff8216806124b7576124b761254f565b6000190192915050565b600181811c908216806124d557607f821691505b602082108114156124f657634e487b7160e01b600052602260045260246000fd5b50919050565b600061ffff808316818114156125145761251461254f565b6001019392505050565b60006000198214156125325761253261254f565b5060010190565b634e487b7160e01b600052600160045260246000fd5b634e487b7160e01b600052601160045260246000fd5b634e487b7160e01b600052603260045260246000fd5b634e487b7160e01b600052604160045260246000fd5b6001600160a01b0381168114611dbb57600080fdfea2646970667358221220b1cd6616170261f9f4dc043d4bf52910170634fd8e56c172a977d9bf9634cdf464736f6c63430008070033",
  "linkReferences": {},
  "deployedLinkReferences": {}
}